{
  "contractName": "Bridge",
  "abi": [
    {
      "inputs": [
        {
          "internalType": "uint256",
          "name": "threshold",
          "type": "uint256"
        },
        {
          "internalType": "uint256",
          "name": "maxPermissibleValidatorCount",
          "type": "uint256"
        },
        {
          "internalType": "uint256",
          "name": "transferFee",
          "type": "uint256"
        },
        {
          "internalType": "uint256",
          "name": "coinDailyLimit",
          "type": "uint256"
        }
      ],
      "stateMutability": "nonpayable",
      "type": "constructor"
    },
    {
      "anonymous": false,
      "inputs": [
        {
          "indexed": true,
          "internalType": "address",
          "name": "previousOwner",
          "type": "address"
        },
        {
          "indexed": true,
          "internalType": "address",
          "name": "newOwner",
          "type": "address"
        }
      ],
      "name": "OwnershipTransferred",
      "type": "event"
    },
    {
      "anonymous": false,
      "inputs": [
        {
          "indexed": true,
          "internalType": "string",
          "name": "receiver",
          "type": "string"
        },
        {
          "indexed": true,
          "internalType": "address",
          "name": "sender",
          "type": "address"
        },
        {
          "indexed": false,
          "internalType": "uint256",
          "name": "amount",
          "type": "uint256"
        },
        {
          "indexed": false,
          "internalType": "address",
          "name": "asset",
          "type": "address"
        },
        {
          "indexed": false,
          "internalType": "uint256",
          "name": "transferNonce",
          "type": "uint256"
        },
        {
          "indexed": false,
          "internalType": "uint256",
          "name": "timestamp",
          "type": "uint256"
        }
      ],
      "name": "TokensTransfered",
      "type": "event"
    },
    {
      "anonymous": false,
      "inputs": [
        {
          "indexed": false,
          "internalType": "address",
          "name": "validator",
          "type": "address"
        },
        {
          "indexed": false,
          "internalType": "bool",
          "name": "isActive",
          "type": "bool"
        },
        {
          "indexed": false,
          "internalType": "uint256",
          "name": "totalActiveValidators",
          "type": "uint256"
        }
      ],
      "name": "ValidatorsCountChanged",
      "type": "event"
    },
    {
      "inputs": [],
      "name": "currentValidatorsCount",
      "outputs": [
        {
          "internalType": "uint256",
          "name": "",
          "type": "uint256"
        }
      ],
      "stateMutability": "view",
      "type": "function"
    },
    {
      "inputs": [
        {
          "internalType": "address",
          "name": "",
          "type": "address"
        }
      ],
      "name": "dailyLimit",
      "outputs": [
        {
          "internalType": "uint256",
          "name": "",
          "type": "uint256"
        }
      ],
      "stateMutability": "view",
      "type": "function"
    },
    {
      "inputs": [
        {
          "internalType": "address",
          "name": "",
          "type": "address"
        }
      ],
      "name": "dailySpend",
      "outputs": [
        {
          "internalType": "uint256",
          "name": "",
          "type": "uint256"
        }
      ],
      "stateMutability": "view",
      "type": "function"
    },
    {
      "inputs": [],
      "name": "fee",
      "outputs": [
        {
          "internalType": "uint256",
          "name": "",
          "type": "uint256"
        }
      ],
      "stateMutability": "view",
      "type": "function"
    },
    {
      "inputs": [],
      "name": "hashSwapMessage",
      "outputs": [
        {
          "internalType": "bytes32",
          "name": "",
          "type": "bytes32"
        }
      ],
      "stateMutability": "view",
      "type": "function"
    },
    {
      "inputs": [],
      "name": "maxValidatorsCount",
      "outputs": [
        {
          "internalType": "uint256",
          "name": "",
          "type": "uint256"
        }
      ],
      "stateMutability": "view",
      "type": "function"
    },
    {
      "inputs": [],
      "name": "owner",
      "outputs": [
        {
          "internalType": "address",
          "name": "",
          "type": "address"
        }
      ],
      "stateMutability": "view",
      "type": "function"
    },
    {
      "inputs": [],
      "name": "renounceOwnership",
      "outputs": [],
      "stateMutability": "nonpayable",
      "type": "function"
    },
    {
      "inputs": [
        {
          "internalType": "address",
          "name": "",
          "type": "address"
        }
      ],
      "name": "tokens",
      "outputs": [
        {
          "internalType": "bool",
          "name": "",
          "type": "bool"
        }
      ],
      "stateMutability": "view",
      "type": "function"
    },
    {
      "inputs": [
        {
          "internalType": "address",
          "name": "newOwner",
          "type": "address"
        }
      ],
      "name": "transferOwnership",
      "outputs": [],
      "stateMutability": "nonpayable",
      "type": "function"
    },
    {
      "inputs": [
        {
          "internalType": "address",
          "name": "",
          "type": "address"
        }
      ],
      "name": "validators",
      "outputs": [
        {
          "internalType": "bool",
          "name": "",
          "type": "bool"
        }
      ],
      "stateMutability": "view",
      "type": "function"
    },
    {
      "inputs": [
        {
          "internalType": "address",
          "name": "",
          "type": "address"
        }
      ],
      "name": "workers",
      "outputs": [
        {
          "internalType": "bool",
          "name": "",
          "type": "bool"
        }
      ],
      "stateMutability": "view",
      "type": "function"
    },
    {
      "stateMutability": "payable",
      "type": "receive"
    },
    {
      "inputs": [
        {
          "internalType": "string",
          "name": "receiver",
          "type": "string"
        }
      ],
      "name": "transferCoin",
      "outputs": [],
      "stateMutability": "payable",
      "type": "function"
    },
    {
      "inputs": [
        {
          "components": [
            {
              "internalType": "uint256",
              "name": "chainId",
              "type": "uint256"
            },
            {
              "internalType": "address payable",
              "name": "receiver",
              "type": "address"
            },
            {
              "internalType": "string",
              "name": "sender",
              "type": "string"
            },
            {
              "internalType": "uint256",
              "name": "timestamp",
              "type": "uint256"
            },
            {
              "internalType": "uint256",
              "name": "amount",
              "type": "uint256"
            },
            {
              "internalType": "address",
              "name": "asset",
              "type": "address"
            },
            {
              "internalType": "uint256",
              "name": "transferNonce",
              "type": "uint256"
            }
          ],
          "internalType": "struct Bridge.SwapMessage",
          "name": "transferInfo",
          "type": "tuple"
        },
        {
          "internalType": "bytes[]",
          "name": "signatures",
          "type": "bytes[]"
        }
      ],
      "name": "requestSwap",
      "outputs": [
        {
          "internalType": "bool",
          "name": "",
          "type": "bool"
        }
      ],
      "stateMutability": "payable",
      "type": "function"
    },
    {
      "inputs": [
        {
          "internalType": "string",
          "name": "receiver",
          "type": "string"
        },
        {
          "internalType": "uint256",
          "name": "amount",
          "type": "uint256"
        },
        {
          "internalType": "address",
          "name": "asset",
          "type": "address"
        }
      ],
      "name": "transferToken",
      "outputs": [],
      "stateMutability": "nonpayable",
      "type": "function"
    },
    {
      "inputs": [
        {
          "internalType": "uint256",
          "name": "percentFee",
          "type": "uint256"
        }
      ],
      "name": "setFee",
      "outputs": [],
      "stateMutability": "nonpayable",
      "type": "function"
    },
    {
      "inputs": [
        {
          "internalType": "address",
          "name": "newValidator",
          "type": "address"
        }
      ],
      "name": "addValidator",
      "outputs": [],
      "stateMutability": "nonpayable",
      "type": "function"
    },
    {
      "inputs": [
        {
          "internalType": "address",
          "name": "removedValidator",
          "type": "address"
        }
      ],
      "name": "removeValidator",
      "outputs": [],
      "stateMutability": "nonpayable",
      "type": "function"
    },
    {
      "inputs": [
        {
          "internalType": "address",
          "name": "newWorker",
          "type": "address"
        }
      ],
      "name": "addWorker",
      "outputs": [],
      "stateMutability": "nonpayable",
      "type": "function"
    },
    {
      "inputs": [
        {
          "internalType": "address",
          "name": "removedWorker",
          "type": "address"
        }
      ],
      "name": "removeWorker",
      "outputs": [],
      "stateMutability": "nonpayable",
      "type": "function"
    },
    {
      "inputs": [
        {
          "internalType": "uint256",
          "name": "newSignaturesThreshold",
          "type": "uint256"
        }
      ],
      "name": "setThreshold",
      "outputs": [],
      "stateMutability": "nonpayable",
      "type": "function"
    },
    {
      "inputs": [
        {
          "internalType": "address",
          "name": "newToken",
          "type": "address"
        },
        {
          "internalType": "uint256",
          "name": "tokenDailyLimit",
          "type": "uint256"
        }
      ],
      "name": "addToken",
      "outputs": [],
      "stateMutability": "nonpayable",
      "type": "function"
    },
    {
      "inputs": [
        {
          "internalType": "address",
          "name": "removedToken",
          "type": "address"
        }
      ],
      "name": "removeToken",
      "outputs": [],
      "stateMutability": "nonpayable",
      "type": "function"
    },
    {
      "inputs": [
        {
          "internalType": "uint256",
          "name": "newLimit",
          "type": "uint256"
        },
        {
          "internalType": "address",
          "name": "assetLimited",
          "type": "address"
        }
      ],
      "name": "setDailyLimit",
      "outputs": [],
      "stateMutability": "nonpayable",
      "type": "function"
    },
    {
      "inputs": [
        {
          "internalType": "uint256",
          "name": "newDuration",
          "type": "uint256"
        }
      ],
      "name": "setNewDurationBeforeExpirationTime",
      "outputs": [],
      "stateMutability": "nonpayable",
      "type": "function"
    },
    {
      "inputs": [
        {
          "components": [
            {
              "internalType": "uint256",
              "name": "chainId",
              "type": "uint256"
            },
            {
              "internalType": "address payable",
              "name": "receiver",
              "type": "address"
            },
            {
              "internalType": "string",
              "name": "sender",
              "type": "string"
            },
            {
              "internalType": "uint256",
              "name": "timestamp",
              "type": "uint256"
            },
            {
              "internalType": "uint256",
              "name": "amount",
              "type": "uint256"
            },
            {
              "internalType": "address",
              "name": "asset",
              "type": "address"
            },
            {
              "internalType": "uint256",
              "name": "transferNonce",
              "type": "uint256"
            }
          ],
          "internalType": "struct Bridge.SwapMessage",
          "name": "transferInfo",
          "type": "tuple"
        }
      ],
      "name": "hashMessage",
      "outputs": [
        {
          "internalType": "bytes32",
          "name": "",
          "type": "bytes32"
        }
      ],
      "stateMutability": "pure",
      "type": "function"
    },
    {
      "inputs": [
        {
          "internalType": "bytes32",
          "name": "signedMessage",
          "type": "bytes32"
        },
        {
          "internalType": "bytes",
          "name": "signature",
          "type": "bytes"
        }
      ],
      "name": "getAddreessFromSignuture",
      "outputs": [
        {
          "internalType": "address",
          "name": "",
          "type": "address"
        }
      ],
      "stateMutability": "view",
      "type": "function"
    }
  ],
  "bytecode": "0x60806040523480156200001157600080fd5b506040516200454b3803806200454b83398181016040528101906200003791906200021e565b600062000049620001ff60201b60201c565b9050806000806101000a81548173ffffffffffffffffffffffffffffffffffffffff021916908373ffffffffffffffffffffffffffffffffffffffff1602179055508073ffffffffffffffffffffffffffffffffffffffff16600073ffffffffffffffffffffffffffffffffffffffff167f8be0079c531659141344cd1fd0a4f28419497f9722a3daafe3b4186f6b6457e060405160405180910390a35083600881905550826009819055506000600a819055508160068190555062015180600b8190555080600460008073ffffffffffffffffffffffffffffffffffffffff1673ffffffffffffffffffffffffffffffffffffffff1681526020019081526020016000208190555042600760008073ffffffffffffffffffffffffffffffffffffffff1673ffffffffffffffffffffffffffffffffffffffff168152602001908152602001600020819055506000600c8190555060018060008073ffffffffffffffffffffffffffffffffffffffff1673ffffffffffffffffffffffffffffffffffffffff16815260200190815260200160002060006101000a81548160ff02191690831515021790555050505050620002ae565b600033905090565b600081519050620002188162000294565b92915050565b600080600080608085870312156200023557600080fd5b6000620002458782880162000207565b9450506020620002588782880162000207565b93505060406200026b8782880162000207565b92505060606200027e8782880162000207565b91505092959194509250565b6000819050919050565b6200029f816200028a565b8114620002ab57600080fd5b50565b61428d80620002be6000396000f3fe6080604052600436106101a05760003560e01c806382e48439116100ec578063ddcbc1b31161008a578063f2fde38b11610064578063f2fde38b146105af578063f3f51415146105d8578063f589b79e14610615578063fa52c7d814610640576101a7565b8063ddcbc1b314610519578063de2791dc14610549578063e486033914610572576101a7565b8063960bfe04116100c6578063960bfe0414610473578063af81c5b91461049c578063c4f987a5146104c5578063ddca3f43146104ee576101a7565b806382e48439146103e25780638da5cb5b1461040b5780638f184bea14610436576101a7565b806355d6904f116101595780636c024287116101335780636c0242871461034c5780636df1624514610377578063715018a6146103a2578063806ad57e146103b9576101a7565b806355d6904f146102d15780635fa7b584146102fa57806369fe0e2d14610323576101a7565b806319e6fcd5146101ac57806328123dd7146101c85780634048a2571461020557806340a141ff146102425780634d238c8e1461026b578063511ae63f14610294576101a7565b366101a757005b600080fd5b6101c660048036038101906101c19190612ce6565b61067d565b005b3480156101d457600080fd5b506101ef60048036038101906101ea9190612d8e565b610742565b6040516101fc9190613ac6565b60405180910390f35b34801561021157600080fd5b5061022c60048036038101906102279190612bdb565b61079a565b6040516102399190613aab565b60405180910390f35b34801561024e57600080fd5b5061026960048036038101906102649190612bdb565b6107ba565b005b34801561027757600080fd5b50610292600480360381019061028d9190612bdb565b610990565b005b3480156102a057600080fd5b506102bb60048036038101906102b69190612bdb565b610b62565b6040516102c89190613eea565b60405180910390f35b3480156102dd57600080fd5b506102f860048036038101906102f39190612d27565b610b7a565b005b34801561030657600080fd5b50610321600480360381019061031c9190612bdb565b610e26565b005b34801561032f57600080fd5b5061034a60048036038101906103459190612e3b565b610fa0565b005b34801561035857600080fd5b50610361611059565b60405161036e9190613eea565b60405180910390f35b34801561038357600080fd5b5061038c61105f565b6040516103999190613ac6565b60405180910390f35b3480156103ae57600080fd5b506103b7611065565b005b3480156103c557600080fd5b506103e060048036038101906103db9190612bdb565b6111b8565b005b3480156103ee57600080fd5b5061040960048036038101906104049190612e8d565b6112a8565b005b34801561041757600080fd5b50610420611455565b60405161042d9190613a15565b60405180910390f35b34801561044257600080fd5b5061045d60048036038101906104589190612c92565b61147e565b60405161046a9190613a15565b60405180910390f35b34801561047f57600080fd5b5061049a60048036038101906104959190612e3b565b611492565b005b3480156104a857600080fd5b506104c360048036038101906104be9190612c04565b611583565b005b3480156104d157600080fd5b506104ec60048036038101906104e79190612bdb565b61173f565b005b3480156104fa57600080fd5b5061050361182f565b6040516105109190613eea565b60405180910390f35b610533600480360381019061052e9190612dcf565b611835565b6040516105409190613aab565b60405180910390f35b34801561055557600080fd5b50610570600480360381019061056b9190612e3b565b611b5b565b005b34801561057e57600080fd5b5061059960048036038101906105949190612bdb565b611c3e565b6040516105a69190613aab565b60405180910390f35b3480156105bb57600080fd5b506105d660048036038101906105d19190612bdb565b611c5e565b005b3480156105e457600080fd5b506105ff60048036038101906105fa9190612bdb565b611e20565b60405161060c9190613eea565b60405180910390f35b34801561062157600080fd5b5061062a611e38565b6040516106379190613eea565b60405180910390f35b34801561064c57600080fd5b5061066760048036038101906106629190612bdb565b611e3e565b6040516106749190613aab565b60405180910390f35b600034116106c0576040517f08c379a00000000000000000000000000000000000000000000000000000000081526004016106b790613e48565b60405180910390fd5b600c600081548092919060010191905055503373ffffffffffffffffffffffffffffffffffffffff16816040516106f791906139fe565b60405180910390207f7102af1a4f20fad155668066a94f6c25a0f6ab0d96f9306ce73736b876a74698346000600c54426040516107379493929190613f7b565b60405180910390a350565b6000816000015182602001518360400151846060015185608001518660a001518760c0015160405160200161077d9796959493929190613f05565b604051602081830303815290604052805190602001209050919050565b60036020528060005260406000206000915054906101000a900460ff1681565b6107c2611e5e565b73ffffffffffffffffffffffffffffffffffffffff1660008054906101000a900473ffffffffffffffffffffffffffffffffffffffff1673ffffffffffffffffffffffffffffffffffffffff161461084f576040517f08c379a000000000000000000000000000000000000000000000000000000000815260040161084690613d88565b60405180910390fd5b6008546001600a54031015610899576040517f08c379a000000000000000000000000000000000000000000000000000000000815260040161089090613d68565b60405180910390fd5b6000600260008373ffffffffffffffffffffffffffffffffffffffff1673ffffffffffffffffffffffffffffffffffffffff16815260200190815260200160002060006101000a81548160ff021916908315150217905550600a60008154809291906001900391905055507f153066aab18a34afa5fd45afded10633ea721fcfb168f9ad3a436b179e18b52381600260008473ffffffffffffffffffffffffffffffffffffffff1673ffffffffffffffffffffffffffffffffffffffff16815260200190815260200160002060009054906101000a900460ff16600a5460405161098593929190613a74565b60405180910390a150565b610998611e5e565b73ffffffffffffffffffffffffffffffffffffffff1660008054906101000a900473ffffffffffffffffffffffffffffffffffffffff1673ffffffffffffffffffffffffffffffffffffffff1614610a25576040517f08c379a0000000000000000000000000000000000000000000000000000000008152600401610a1c90613d88565b60405180910390fd5b600954600a541415610a6c576040517f08c379a0000000000000000000000000000000000000000000000000000000008152600401610a6390613de8565b60405180910390fd5b6001600260008373ffffffffffffffffffffffffffffffffffffffff1673ffffffffffffffffffffffffffffffffffffffff16815260200190815260200160002060006101000a81548160ff021916908315150217905550600a600081548092919060010191905055507f153066aab18a34afa5fd45afded10633ea721fcfb168f9ad3a436b179e18b52381600260008473ffffffffffffffffffffffffffffffffffffffff1673ffffffffffffffffffffffffffffffffffffffff16815260200190815260200160002060009054906101000a900460ff16600a54604051610b5793929190613a74565b60405180910390a150565b60056020528060005260406000206000915090505481565b600160008273ffffffffffffffffffffffffffffffffffffffff1673ffffffffffffffffffffffffffffffffffffffff16815260200190815260200160002060009054906101000a900460ff16610c06576040517f08c379a0000000000000000000000000000000000000000000000000000000008152600401610bfd90613ea8565b60405180910390fd5b6000819050828173ffffffffffffffffffffffffffffffffffffffff166370a08231336040518263ffffffff1660e01b8152600401610c459190613a30565b60206040518083038186803b158015610c5d57600080fd5b505afa158015610c71573d6000803e3d6000fd5b505050506040513d601f19601f82011682018060405250810190610c959190612e64565b1015610cd6576040517f08c379a0000000000000000000000000000000000000000000000000000000008152600401610ccd90613d08565b60405180910390fd5b8073ffffffffffffffffffffffffffffffffffffffff16639dc29fac33856040518363ffffffff1660e01b8152600401610d11929190613a4b565b602060405180830381600087803b158015610d2b57600080fd5b505af1158015610d3f573d6000803e3d6000fd5b505050506040513d601f19601f82011682018060405250810190610d639190612c40565b610da2576040517f08c379a0000000000000000000000000000000000000000000000000000000008152600401610d9990613b68565b60405180910390fd5b600c600081548092919060010191905055503373ffffffffffffffffffffffffffffffffffffffff1684604051610dd991906139fe565b60405180910390207f7102af1a4f20fad155668066a94f6c25a0f6ab0d96f9306ce73736b876a746988585600c5442604051610e189493929190613fc0565b60405180910390a350505050565b610e2e611e5e565b73ffffffffffffffffffffffffffffffffffffffff1660008054906101000a900473ffffffffffffffffffffffffffffffffffffffff1673ffffffffffffffffffffffffffffffffffffffff1614610ebb576040517f08c379a0000000000000000000000000000000000000000000000000000000008152600401610eb290613d88565b60405180910390fd5b6000600160008373ffffffffffffffffffffffffffffffffffffffff1673ffffffffffffffffffffffffffffffffffffffff16815260200190815260200160002060006101000a81548160ff0219169083151502179055506000600460008373ffffffffffffffffffffffffffffffffffffffff1673ffffffffffffffffffffffffffffffffffffffff168152602001908152602001600020819055506000600760008373ffffffffffffffffffffffffffffffffffffffff1673ffffffffffffffffffffffffffffffffffffffff1681526020019081526020016000208190555050565b610fa8611e5e565b73ffffffffffffffffffffffffffffffffffffffff1660008054906101000a900473ffffffffffffffffffffffffffffffffffffffff1673ffffffffffffffffffffffffffffffffffffffff1614611035576040517f08c379a000000000000000000000000000000000000000000000000000000000815260040161102c90613d88565b60405180910390fd5b600081141580156110465750606481105b61104f57600080fd5b8060068190555050565b600a5481565b600d5481565b61106d611e5e565b73ffffffffffffffffffffffffffffffffffffffff1660008054906101000a900473ffffffffffffffffffffffffffffffffffffffff1673ffffffffffffffffffffffffffffffffffffffff16146110fa576040517f08c379a00000000000000000000000000000000000000000000000000000000081526004016110f190613d88565b60405180910390fd5b600073ffffffffffffffffffffffffffffffffffffffff1660008054906101000a900473ffffffffffffffffffffffffffffffffffffffff1673ffffffffffffffffffffffffffffffffffffffff167f8be0079c531659141344cd1fd0a4f28419497f9722a3daafe3b4186f6b6457e060405160405180910390a360008060006101000a81548173ffffffffffffffffffffffffffffffffffffffff021916908373ffffffffffffffffffffffffffffffffffffffff160217905550565b6111c0611e5e565b73ffffffffffffffffffffffffffffffffffffffff1660008054906101000a900473ffffffffffffffffffffffffffffffffffffffff1673ffffffffffffffffffffffffffffffffffffffff161461124d576040517f08c379a000000000000000000000000000000000000000000000000000000000815260040161124490613d88565b60405180910390fd5b6001600360008373ffffffffffffffffffffffffffffffffffffffff1673ffffffffffffffffffffffffffffffffffffffff16815260200190815260200160002060006101000a81548160ff02191690831515021790555050565b6112b0611e5e565b73ffffffffffffffffffffffffffffffffffffffff1660008054906101000a900473ffffffffffffffffffffffffffffffffffffffff1673ffffffffffffffffffffffffffffffffffffffff161461133d576040517f08c379a000000000000000000000000000000000000000000000000000000000815260040161133490613d88565b60405180910390fd5b6000821415611381576040517f08c379a000000000000000000000000000000000000000000000000000000000815260040161137890613ce8565b60405180910390fd5b600160008273ffffffffffffffffffffffffffffffffffffffff1673ffffffffffffffffffffffffffffffffffffffff16815260200190815260200160002060009054906101000a900460ff1661140d576040517f08c379a000000000000000000000000000000000000000000000000000000000815260040161140490613dc8565b60405180910390fd5b81600460008373ffffffffffffffffffffffffffffffffffffffff1673ffffffffffffffffffffffffffffffffffffffff168152602001908152602001600020819055505050565b60008060009054906101000a900473ffffffffffffffffffffffffffffffffffffffff16905090565b600061148a8383611e66565b905092915050565b61149a611e5e565b73ffffffffffffffffffffffffffffffffffffffff1660008054906101000a900473ffffffffffffffffffffffffffffffffffffffff1673ffffffffffffffffffffffffffffffffffffffff1614611527576040517f08c379a000000000000000000000000000000000000000000000000000000000815260040161151e90613d88565b60405180910390fd5b6000811415801561153a57506009548111155b611579576040517f08c379a000000000000000000000000000000000000000000000000000000000815260040161157090613e28565b60405180910390fd5b8060088190555050565b61158b611e5e565b73ffffffffffffffffffffffffffffffffffffffff1660008054906101000a900473ffffffffffffffffffffffffffffffffffffffff1673ffffffffffffffffffffffffffffffffffffffff1614611618576040517f08c379a000000000000000000000000000000000000000000000000000000000815260040161160f90613d88565b60405180910390fd5b600081141561165c576040517f08c379a000000000000000000000000000000000000000000000000000000000815260040161165390613c68565b60405180910390fd5b60018060008473ffffffffffffffffffffffffffffffffffffffff1673ffffffffffffffffffffffffffffffffffffffff16815260200190815260200160002060006101000a81548160ff02191690831515021790555080600460008473ffffffffffffffffffffffffffffffffffffffff1673ffffffffffffffffffffffffffffffffffffffff1681526020019081526020016000208190555042600760008473ffffffffffffffffffffffffffffffffffffffff1673ffffffffffffffffffffffffffffffffffffffff168152602001908152602001600020819055505050565b611747611e5e565b73ffffffffffffffffffffffffffffffffffffffff1660008054906101000a900473ffffffffffffffffffffffffffffffffffffffff1673ffffffffffffffffffffffffffffffffffffffff16146117d4576040517f08c379a00000000000000000000000000000000000000000000000000000000081526004016117cb90613d88565b60405180910390fd5b6000600360008373ffffffffffffffffffffffffffffffffffffffff1673ffffffffffffffffffffffffffffffffffffffff16815260200190815260200160002060006101000a81548160ff02191690831515021790555050565b60065481565b6000600360003373ffffffffffffffffffffffffffffffffffffffff1673ffffffffffffffffffffffffffffffffffffffff16815260200190815260200160002060009054906101000a900460ff166118c3576040517f08c379a00000000000000000000000000000000000000000000000000000000081526004016118ba90613e88565b60405180910390fd5b6118d08360600151612057565b61190f576040517f08c379a000000000000000000000000000000000000000000000000000000000815260040161190690613e08565b60405180910390fd5b600160008460a0015173ffffffffffffffffffffffffffffffffffffffff1673ffffffffffffffffffffffffffffffffffffffff16815260200190815260200160002060009054906101000a900460ff1661199f576040517f08c379a000000000000000000000000000000000000000000000000000000000815260040161199690613ea8565b60405180910390fd5b826020015173ffffffffffffffffffffffffffffffffffffffff16836020015173ffffffffffffffffffffffffffffffffffffffff1614611a15576040517f08c379a0000000000000000000000000000000000000000000000000000000008152600401611a0c90613cc8565b60405180910390fd5b600854825110158015611a2b5750600954825111155b611a6a576040517f08c379a0000000000000000000000000000000000000000000000000000000008152600401611a6190613e68565b60405180910390fd5b3073ffffffffffffffffffffffffffffffffffffffff166328123dd7846040518263ffffffff1660e01b8152600401611aa39190613ec8565b60206040518083038186803b158015611abb57600080fd5b505afa158015611acf573d6000803e3d6000fd5b505050506040513d601f19601f82011682018060405250810190611af39190612c69565b600d81905550611b05600d5483612088565b611b44576040517f08c379a0000000000000000000000000000000000000000000000000000000008152600401611b3b90613ba8565b60405180910390fd5b6000611b4f846121e6565b90508091505092915050565b611b63611e5e565b73ffffffffffffffffffffffffffffffffffffffff1660008054906101000a900473ffffffffffffffffffffffffffffffffffffffff1673ffffffffffffffffffffffffffffffffffffffff1614611bf0576040517f08c379a0000000000000000000000000000000000000000000000000000000008152600401611be790613d88565b60405180910390fd5b6000811415611c34576040517f08c379a0000000000000000000000000000000000000000000000000000000008152600401611c2b90613ca8565b60405180910390fd5b80600b8190555050565b60016020528060005260406000206000915054906101000a900460ff1681565b611c66611e5e565b73ffffffffffffffffffffffffffffffffffffffff1660008054906101000a900473ffffffffffffffffffffffffffffffffffffffff1673ffffffffffffffffffffffffffffffffffffffff1614611cf3576040517f08c379a0000000000000000000000000000000000000000000000000000000008152600401611cea90613d88565b60405180910390fd5b600073ffffffffffffffffffffffffffffffffffffffff168173ffffffffffffffffffffffffffffffffffffffff161415611d63576040517f08c379a0000000000000000000000000000000000000000000000000000000008152600401611d5a90613be8565b60405180910390fd5b8073ffffffffffffffffffffffffffffffffffffffff1660008054906101000a900473ffffffffffffffffffffffffffffffffffffffff1673ffffffffffffffffffffffffffffffffffffffff167f8be0079c531659141344cd1fd0a4f28419497f9722a3daafe3b4186f6b6457e060405160405180910390a3806000806101000a81548173ffffffffffffffffffffffffffffffffffffffff021916908373ffffffffffffffffffffffffffffffffffffffff16021790555050565b60046020528060005260406000206000915090505481565b60095481565b60026020528060005260406000206000915054906101000a900460ff1681565b600033905090565b60006041825114611eac576040517f08c379a0000000000000000000000000000000000000000000000000000000008152600401611ea390613b88565b60405180910390fd5b60008060006020850151925060408501519150606085015160001a90507f7fffffffffffffffffffffffffffffff5d576e7357a4501ddfe92f46681b20a08260001c1115611f2f576040517f08c379a0000000000000000000000000000000000000000000000000000000008152600401611f2690613c88565b60405180910390fd5b601b8160ff1614158015611f475750601c8160ff1614155b15611f87576040517f08c379a0000000000000000000000000000000000000000000000000000000008152600401611f7e90613d28565b60405180910390fd5b600060018783868660405160008152602001604052604051611fac9493929190613ae1565b6020604051602081039080840390855afa158015611fce573d6000803e3d6000fd5b505050602060405103519050600073ffffffffffffffffffffffffffffffffffffffff168173ffffffffffffffffffffffffffffffffffffffff16141561204a576040517f08c379a000000000000000000000000000000000000000000000000000000000815260040161204190613b48565b60405180910390fd5b8094505050505092915050565b6000600b5461206f83426125e590919063ffffffff16565b101561207e5760019050612083565b600090505b919050565b60006060825167ffffffffffffffff811180156120a457600080fd5b506040519080825280602002602001820160405280156120d35781602001602082028036833780820191505090505b50905060005b83518110156121d9576000612101868684815181106120f457fe5b6020026020010151611e66565b9050600260008273ffffffffffffffffffffffffffffffffffffffff1673ffffffffffffffffffffffffffffffffffffffff16815260200190815260200160002060009054906101000a900460ff1661216057600093505050506121e0565b600082111561218457612173818461262f565b61218357600093505050506121e0565b5b8083838151811061219157fe5b602002602001019073ffffffffffffffffffffffffffffffffffffffff16908173ffffffffffffffffffffffffffffffffffffffff16815250505080806001019150506120d9565b5060019150505b92915050565b600080600460008460a0015173ffffffffffffffffffffffffffffffffffffffff1673ffffffffffffffffffffffffffffffffffffffff16815260200190815260200160002054905060008111612272576040517f08c379a000000000000000000000000000000000000000000000000000000000815260040161226990613da8565b60405180910390fd5b61227f8360a001516126aa565b806122da600560008660a0015173ffffffffffffffffffffffffffffffffffffffff1673ffffffffffffffffffffffffffffffffffffffff16815260200190815260200160002054856080015161279990919063ffffffff16565b111561231b576040517f08c379a000000000000000000000000000000000000000000000000000000000815260040161231290613bc8565b60405180910390fd5b6123758360800151600560008660a0015173ffffffffffffffffffffffffffffffffffffffff1673ffffffffffffffffffffffffffffffffffffffff1681526020019081526020016000205461279990919063ffffffff16565b600560008560a0015173ffffffffffffffffffffffffffffffffffffffff1673ffffffffffffffffffffffffffffffffffffffff16815260200190815260200160002081905550600073ffffffffffffffffffffffffffffffffffffffff168360a0015173ffffffffffffffffffffffffffffffffffffffff1614156124b9576000612439612426606461241860065488608001516127ee90919063ffffffff16565b61285e90919063ffffffff16565b85608001516125e590919063ffffffff16565b9050836020015173ffffffffffffffffffffffffffffffffffffffff166108fc829081150290604051600060405180830381858888f193505050506124b3576040517f08c379a00000000000000000000000000000000000000000000000000000000081526004016124aa90613c48565b60405180910390fd5b506125db565b60006124fd6124ea60646124dc60065488608001516127ee90919063ffffffff16565b61285e90919063ffffffff16565b85608001516125e590919063ffffffff16565b905060008460a0015190508073ffffffffffffffffffffffffffffffffffffffff1663da1919b38660200151846040518363ffffffff1660e01b8152600401612547929190613a4b565b602060405180830381600087803b15801561256157600080fd5b505af1158015612575573d6000803e3d6000fd5b505050506040513d601f19601f820116820180604052508101906125999190612c40565b6125d8576040517f08c379a00000000000000000000000000000000000000000000000000000000081526004016125cf90613c28565b60405180910390fd5b50505b6001915050919050565b600061262783836040518060400160405280601e81526020017f536166654d6174683a207375627472616374696f6e206f766572666c6f7700008152506128a8565b905092915050565b600080600090505b825181101561269e5782818151811061264c57fe5b602002602001015173ffffffffffffffffffffffffffffffffffffffff168473ffffffffffffffffffffffffffffffffffffffff1614156126915760009150506126a4565b8080600101915050612637565b50600190505b92915050565b600042905062015180612705600760008573ffffffffffffffffffffffffffffffffffffffff1673ffffffffffffffffffffffffffffffffffffffff16815260200190815260200160002054836125e590919063ffffffff16565b11156127955780600760008473ffffffffffffffffffffffffffffffffffffffff1673ffffffffffffffffffffffffffffffffffffffff168152602001908152602001600020819055506000600560008473ffffffffffffffffffffffffffffffffffffffff1673ffffffffffffffffffffffffffffffffffffffff168152602001908152602001600020819055505b5050565b6000808284019050838110156127e4576040517f08c379a00000000000000000000000000000000000000000000000000000000081526004016127db90613c08565b60405180910390fd5b8091505092915050565b6000808314156128015760009050612858565b600082840290508284828161281257fe5b0414612853576040517f08c379a000000000000000000000000000000000000000000000000000000000815260040161284a90613d48565b60405180910390fd5b809150505b92915050565b60006128a083836040518060400160405280601a81526020017f536166654d6174683a206469766973696f6e206279207a65726f000000000000815250612903565b905092915050565b60008383111582906128f0576040517f08c379a00000000000000000000000000000000000000000000000000000000081526004016128e79190613b26565b60405180910390fd5b5060008385039050809150509392505050565b6000808311829061294a576040517f08c379a00000000000000000000000000000000000000000000000000000000081526004016129419190613b26565b60405180910390fd5b50600083858161295657fe5b049050809150509392505050565b600081359050612973816141e4565b92915050565b600081359050612988816141fb565b92915050565b600082601f83011261299f57600080fd5b81356129b26129ad82614032565b614005565b9150818183526020840193506020810190508360005b838110156129f857813586016129de8882612a41565b8452602084019350602083019250506001810190506129c8565b5050505092915050565b600081519050612a1181614212565b92915050565b600081359050612a2681614229565b92915050565b600081519050612a3b81614229565b92915050565b600082601f830112612a5257600080fd5b8135612a65612a608261405a565b614005565b91508082526020830160208301858383011115612a8157600080fd5b612a8c838284614191565b50505092915050565b600082601f830112612aa657600080fd5b8135612ab9612ab482614086565b614005565b91508082526020830160208301858383011115612ad557600080fd5b612ae0838284614191565b50505092915050565b600060e08284031215612afb57600080fd5b612b0560e0614005565b90506000612b1584828501612bb1565b6000830152506020612b2984828501612979565b602083015250604082013567ffffffffffffffff811115612b4957600080fd5b612b5584828501612a95565b6040830152506060612b6984828501612bb1565b6060830152506080612b7d84828501612bb1565b60808301525060a0612b9184828501612964565b60a08301525060c0612ba584828501612bb1565b60c08301525092915050565b600081359050612bc081614240565b92915050565b600081519050612bd581614240565b92915050565b600060208284031215612bed57600080fd5b6000612bfb84828501612964565b91505092915050565b60008060408385031215612c1757600080fd5b6000612c2585828601612964565b9250506020612c3685828601612bb1565b9150509250929050565b600060208284031215612c5257600080fd5b6000612c6084828501612a02565b91505092915050565b600060208284031215612c7b57600080fd5b6000612c8984828501612a2c565b91505092915050565b60008060408385031215612ca557600080fd5b6000612cb385828601612a17565b925050602083013567ffffffffffffffff811115612cd057600080fd5b612cdc85828601612a41565b9150509250929050565b600060208284031215612cf857600080fd5b600082013567ffffffffffffffff811115612d1257600080fd5b612d1e84828501612a95565b91505092915050565b600080600060608486031215612d3c57600080fd5b600084013567ffffffffffffffff811115612d5657600080fd5b612d6286828701612a95565b9350506020612d7386828701612bb1565b9250506040612d8486828701612964565b9150509250925092565b600060208284031215612da057600080fd5b600082013567ffffffffffffffff811115612dba57600080fd5b612dc684828501612ae9565b91505092915050565b60008060408385031215612de257600080fd5b600083013567ffffffffffffffff811115612dfc57600080fd5b612e0885828601612ae9565b925050602083013567ffffffffffffffff811115612e2557600080fd5b612e318582860161298e565b9150509250929050565b600060208284031215612e4d57600080fd5b6000612e5b84828501612bb1565b91505092915050565b600060208284031215612e7657600080fd5b6000612e8484828501612bc6565b91505092915050565b60008060408385031215612ea057600080fd5b6000612eae85828601612bb1565b9250506020612ebf85828601612964565b9150509250929050565b612ed28161415b565b82525050565b612ee1816140fc565b82525050565b612ef0816140fc565b82525050565b612eff816140ea565b82525050565b612f0e816140ea565b82525050565b612f1d8161410e565b82525050565b612f2c8161411a565b82525050565b6000612f3d826140b2565b612f4781856140bd565b9350612f578185602086016141a0565b612f60816141d3565b840191505092915050565b6000612f76826140b2565b612f8081856140ce565b9350612f908185602086016141a0565b612f99816141d3565b840191505092915050565b6000612faf826140b2565b612fb981856140df565b9350612fc98185602086016141a0565b80840191505092915050565b6000612fe26018836140ce565b91507f45434453413a20696e76616c6964207369676e617475726500000000000000006000830152602082019050919050565b60006130226020836140ce565b91507f4572726f72207768696c65206275726e2073656e646572277320746f6b656e736000830152602082019050919050565b6000613062601f836140ce565b91507f45434453413a20696e76616c6964207369676e6174757265206c656e677468006000830152602082019050919050565b60006130a26021836140ce565b91507f5369676e61747572657320766572696669636174696f6e206973206661696c6560008301527f64000000000000000000000000000000000000000000000000000000000000006020830152604082019050919050565b6000613108602e836140ce565b91507f4461696c79206c696d69742068617320616c726561647920726561636865642060008301527f666f7220746869732061737365740000000000000000000000000000000000006020830152604082019050919050565b600061316e6026836140ce565b91507f4f776e61626c653a206e6577206f776e657220697320746865207a65726f206160008301527f64647265737300000000000000000000000000000000000000000000000000006020830152604082019050919050565b60006131d4601b836140ce565b91507f536166654d6174683a206164646974696f6e206f766572666c6f7700000000006000830152602082019050919050565b60006132146028836140ce565b91507f4572726f72207768696c65206d696e7420746f6b656e7320666f72207468652060008301527f72656365697665720000000000000000000000000000000000000000000000006020830152604082019050919050565b600061327a6013836140ce565b91507f4661696c2073656e64696e6720457468657273000000000000000000000000006000830152602082019050919050565b60006132ba601d836140ce565b91507f496e76616c69642076616c756520746f6b656e4461696c794c696d69740000006000830152602082019050919050565b60006132fa6022836140ce565b91507f45434453413a20696e76616c6964207369676e6174757265202773272076616c60008301527f75650000000000000000000000000000000000000000000000000000000000006020830152604082019050919050565b60006133606016836140ce565b91507f496e76616c6964206475726174696f6e2076616c7565000000000000000000006000830152602082019050919050565b60006133a06018836140ce565b91507f496e76616c6964207265636569766572206164647265737300000000000000006000830152602082019050919050565b60006133e0600d836140ce565b91507f496e76616c6964206c696d6974000000000000000000000000000000000000006000830152602082019050919050565b60006134206032836140ce565b91507f53656e64657220646f65736e2774206861766520656e6f75676820746f6b656e60008301527f7320746f206d616b65207472616e7366657200000000000000000000000000006020830152604082019050919050565b60006134866022836140ce565b91507f45434453413a20696e76616c6964207369676e6174757265202776272076616c60008301527f75650000000000000000000000000000000000000000000000000000000000006020830152604082019050919050565b60006134ec6021836140ce565b91507f536166654d6174683a206d756c7469706c69636174696f6e206f766572666c6f60008301527f77000000000000000000000000000000000000000000000000000000000000006020830152604082019050919050565b6000613552601c836140ce565b91507f546865726520617265206e6f2076616c696461746f7273206e6f7721000000006000830152602082019050919050565b60006135926020836140ce565b91507f4f776e61626c653a2063616c6c6572206973206e6f7420746865206f776e65726000830152602082019050919050565b60006135d26028836140ce565b91507f43616e2774207472616e7366657220617373657420776974686f75742064616960008301527f6c79206c696d69740000000000000000000000000000000000000000000000006020830152604082019050919050565b60006136386030836140ce565b91507f5468657265206973206e6f207375636820616e20617373657420696e2074686560008301527f2042726964676520636f6e7472616374000000000000000000000000000000006020830152604082019050919050565b600061369e6028836140ce565b91507f546865206d6178696d756d206e756d626572206f662076616c696461746f727360008301527f206973206e6f77210000000000000000000000000000000000000000000000006020830152604082019050919050565b60006137046034836140ce565b91507f5472616e73616374696f6e2063616e27742062652073656e742062656361757360008301527f65206f662065787069726174696f6e2074696d650000000000000000000000006020830152604082019050919050565b600061376a601b836140ce565b91507f4976616c6964206e756d626572206f662056616c696461746f727300000000006000830152602082019050919050565b60006137aa6039836140ce565b91507f596f75206861766520746f2061747461636820736f6d6520616d6f756e74206f60008301527f662061737365747320746f206d616b65207472616e73666572000000000000006020830152604082019050919050565b6000613810602a836140ce565b91507f57726f6e6720636f756e74206f66207369676e61747572657320746f206d616b60008301527f65207472616e73666572000000000000000000000000000000000000000000006020830152604082019050919050565b60006138766023836140ce565b91507f4f6e6c7920776f726b65722063616e2063616c6c20746869732066756e63746960008301527f6f6e2e00000000000000000000000000000000000000000000000000000000006020830152604082019050919050565b60006138dc6023836140ce565b91507f556e6b6e6f776e20617373657420697320747279696e6720746f207472616e7360008301527f66657200000000000000000000000000000000000000000000000000000000006020830152604082019050919050565b600060e08301600083015161394d60008601826139d1565b5060208301516139606020860182612ed8565b50604083015184820360408601526139788282612f32565b915050606083015161398d60608601826139d1565b5060808301516139a060808601826139d1565b5060a08301516139b360a0860182612ef6565b5060c08301516139c660c08601826139d1565b508091505092915050565b6139da81614144565b82525050565b6139e981614144565b82525050565b6139f88161414e565b82525050565b6000613a0a8284612fa4565b915081905092915050565b6000602082019050613a2a6000830184612f05565b92915050565b6000602082019050613a456000830184612ec9565b92915050565b6000604082019050613a606000830185612ec9565b613a6d60208301846139e0565b9392505050565b6000606082019050613a896000830186612f05565b613a966020830185612f14565b613aa360408301846139e0565b949350505050565b6000602082019050613ac06000830184612f14565b92915050565b6000602082019050613adb6000830184612f23565b92915050565b6000608082019050613af66000830187612f23565b613b0360208301866139ef565b613b106040830185612f23565b613b1d6060830184612f23565b95945050505050565b60006020820190508181036000830152613b408184612f6b565b905092915050565b60006020820190508181036000830152613b6181612fd5565b9050919050565b60006020820190508181036000830152613b8181613015565b9050919050565b60006020820190508181036000830152613ba181613055565b9050919050565b60006020820190508181036000830152613bc181613095565b9050919050565b60006020820190508181036000830152613be1816130fb565b9050919050565b60006020820190508181036000830152613c0181613161565b9050919050565b60006020820190508181036000830152613c21816131c7565b9050919050565b60006020820190508181036000830152613c4181613207565b9050919050565b60006020820190508181036000830152613c618161326d565b9050919050565b60006020820190508181036000830152613c81816132ad565b9050919050565b60006020820190508181036000830152613ca1816132ed565b9050919050565b60006020820190508181036000830152613cc181613353565b9050919050565b60006020820190508181036000830152613ce181613393565b9050919050565b60006020820190508181036000830152613d01816133d3565b9050919050565b60006020820190508181036000830152613d2181613413565b9050919050565b60006020820190508181036000830152613d4181613479565b9050919050565b60006020820190508181036000830152613d61816134df565b9050919050565b60006020820190508181036000830152613d8181613545565b9050919050565b60006020820190508181036000830152613da181613585565b9050919050565b60006020820190508181036000830152613dc1816135c5565b9050919050565b60006020820190508181036000830152613de18161362b565b9050919050565b60006020820190508181036000830152613e0181613691565b9050919050565b60006020820190508181036000830152613e21816136f7565b9050919050565b60006020820190508181036000830152613e418161375d565b9050919050565b60006020820190508181036000830152613e618161379d565b9050919050565b60006020820190508181036000830152613e8181613803565b9050919050565b60006020820190508181036000830152613ea181613869565b9050919050565b60006020820190508181036000830152613ec1816138cf565b9050919050565b60006020820190508181036000830152613ee28184613935565b905092915050565b6000602082019050613eff60008301846139e0565b92915050565b600060e082019050613f1a600083018a6139e0565b613f276020830189612ee7565b8181036040830152613f398188612f6b565b9050613f4860608301876139e0565b613f5560808301866139e0565b613f6260a0830185612f05565b613f6f60c08301846139e0565b98975050505050505050565b6000608082019050613f9060008301876139e0565b613f9d6020830186612ec9565b613faa60408301856139e0565b613fb760608301846139e0565b95945050505050565b6000608082019050613fd560008301876139e0565b613fe26020830186612f05565b613fef60408301856139e0565b613ffc60608301846139e0565b95945050505050565b6000604051905081810181811067ffffffffffffffff8211171561402857600080fd5b8060405250919050565b600067ffffffffffffffff82111561404957600080fd5b602082029050602081019050919050565b600067ffffffffffffffff82111561407157600080fd5b601f19601f8301169050602081019050919050565b600067ffffffffffffffff82111561409d57600080fd5b601f19601f8301169050602081019050919050565b600081519050919050565b600082825260208201905092915050565b600082825260208201905092915050565b600081905092915050565b60006140f582614124565b9050919050565b600061410782614124565b9050919050565b60008115159050919050565b6000819050919050565b600073ffffffffffffffffffffffffffffffffffffffff82169050919050565b6000819050919050565b600060ff82169050919050565b60006141668261416d565b9050919050565b60006141788261417f565b9050919050565b600061418a82614124565b9050919050565b82818337600083830152505050565b60005b838110156141be5780820151818401526020810190506141a3565b838111156141cd576000848401525b50505050565b6000601f19601f8301169050919050565b6141ed816140ea565b81146141f857600080fd5b50565b614204816140fc565b811461420f57600080fd5b50565b61421b8161410e565b811461422657600080fd5b50565b6142328161411a565b811461423d57600080fd5b50565b61424981614144565b811461425457600080fd5b5056fea2646970667358221220d83c40196f050a831b356842e7e1841794f0170f1d5d87c626dd8d296239d85264736f6c634300060c0033",
  "immutableReferences": {},
  "source": "// SPDX-License-Identifier: MIT\npragma experimental ABIEncoderV2;\n\nimport \"@openzeppelin/contracts/access/Ownable.sol\";\nimport \"@openzeppelin/contracts/math/SafeMath.sol\";\nimport \"@openzeppelin/contracts/cryptography/ECDSA.sol\";\nimport \"./EdgewareToken.sol\";\n\ncontract Bridge is Ownable {\n    using SafeMath for uint256;\n\n    mapping(address => bool) public tokens;\n    mapping(address => bool) public validators;\n    mapping(address => bool) public workers;\n    mapping(address => uint256) public dailyLimit;\n    mapping(address => uint256) public dailySpend;\n    uint256 public fee;\n\n    mapping(address => uint256) dailyLimitSetTime;\n    uint256 signatureThreshold;\n    uint256 public maxValidatorsCount;\n    uint256 public currentValidatorsCount;\n    uint256 durationBeforeExpirationTime;\n    uint256 transferNonce;\n    bytes32 public hashSwapMessage;\n\n    event TokensTransfered(\n        string indexed receiver,\n        address indexed sender,\n        uint256 amount,\n        address asset,\n        uint256 transferNonce,\n        uint256 timestamp\n    );\n\n    event ValidatorsCountChanged(\n        address validator,\n        bool isActive,\n        uint256 totalActiveValidators\n    );\n\n    struct SwapMessage {\n        uint256 chainId;\n        address payable receiver;\n        string sender;\n        uint256 timestamp;\n        uint256 amount;\n        address asset;\n        uint256 transferNonce;\n    }\n\n    modifier onlyWorker() {\n        require(workers[msg.sender], \"Only worker can call this function.\");\n        _;\n    }\n\n    constructor(\n        uint256 threshold,\n        uint256 maxPermissibleValidatorCount,\n        uint256 transferFee,\n        uint256 coinDailyLimit\n    ) public Ownable() {\n        signatureThreshold = threshold;\n        maxValidatorsCount = maxPermissibleValidatorCount;\n        currentValidatorsCount = 0;\n        fee = transferFee;\n        durationBeforeExpirationTime = 1 days;\n        dailyLimit[address(0)] = coinDailyLimit;\n        dailyLimitSetTime[address(0)] = block.timestamp;\n        transferNonce = 0;\n        tokens[address(0)] = true;\n    }\n\n    receive() external payable {}\n\n    function transferCoin(string memory receiver) public payable {\n        require(\n            msg.value > 0,\n            \"You have to attach some amount of assets to make transfer\"\n        );\n        transferNonce++;\n        emit TokensTransfered(\n            receiver,\n            msg.sender,\n            msg.value,\n            address(0),\n            transferNonce,\n            block.timestamp\n        );\n    }\n\n    /**\n     * @dev Request for swap coins and tokens\n     * Can only be called by the worker. Works for only for expiration time interval,\n     * for added token address, and validated signatures and for assetDailyLimit no more than\n     * initialized\n     * SwapMessage transferInfo to see type SwapMessage\n     * bytes[] signatures - array of hashes\n     * Can only be called by the worker.\n     */\n    function requestSwap(\n        SwapMessage memory transferInfo,\n        bytes[] memory signatures\n    ) public payable onlyWorker() returns (bool) {\n        require(\n            isTimeNotExpired(transferInfo.timestamp),\n            \"Transaction can't be sent because of expiration time\"\n        );\n\n        require(\n            tokens[transferInfo.asset],\n            \"Unknown asset is trying to transfer\"\n        );\n\n        require(\n            transferInfo.receiver == address(transferInfo.receiver),\n            \"Invalid receiver address\"\n        );\n\n        require(\n            signatures.length >= signatureThreshold &&\n                signatures.length <= maxValidatorsCount,\n            \"Wrong count of signatures to make transfer\"\n        );\n\n        hashSwapMessage = this.hashMessage(transferInfo);\n        require(\n            verifySignatures(hashSwapMessage, signatures),\n            \"Signatures verification is failed\"\n        );\n\n        bool res = makeSwap(transferInfo);\n        return res;\n    }\n\n    function transferToken(\n        string memory receiver,\n        uint256 amount,\n        address asset\n    ) public {\n        require(tokens[asset], \"Unknown asset is trying to transfer\");\n        EdgewareToken assetContract = EdgewareToken(asset);\n        require(\n            assetContract.balanceOf(msg.sender) >= amount,\n            \"Sender doesn't have enough tokens to make transfer\"\n        );\n        require(\n            assetContract.burn(msg.sender, amount),\n            \"Error while burn sender's tokens\"\n        );\n        transferNonce++;\n\n        emit TokensTransfered(\n            receiver,\n            msg.sender,\n            amount,\n            asset,\n            transferNonce,\n            block.timestamp\n        );\n    }\n\n    function setFee(uint256 percentFee) public onlyOwner() {\n        require(percentFee != 0 && percentFee < 100);\n        fee = percentFee;\n    }\n\n    // Is count of validators need to check?\n    function addValidator(address newValidator) public onlyOwner() {\n        require(\n            currentValidatorsCount != maxValidatorsCount,\n            \"The maximum number of validators is now!\"\n        );\n        validators[newValidator] = true;\n        currentValidatorsCount++;\n        emit ValidatorsCountChanged(\n            newValidator,\n            validators[newValidator],\n            currentValidatorsCount\n        );\n    }\n\n    function removeValidator(address removedValidator) public onlyOwner() {\n        require(\n            currentValidatorsCount - 1 >= signatureThreshold,\n            \"There are no validators now!\"\n        );\n        validators[removedValidator] = false;\n        currentValidatorsCount--;\n        emit ValidatorsCountChanged(\n            removedValidator,\n            validators[removedValidator],\n            currentValidatorsCount\n        );\n    }\n\n    function addWorker(address newWorker) public onlyOwner() {\n        workers[newWorker] = true;\n    }\n\n    function removeWorker(address removedWorker) public onlyOwner() {\n        workers[removedWorker] = false;\n    }\n\n    function setThreshold(uint256 newSignaturesThreshold) public onlyOwner() {\n        require(\n            newSignaturesThreshold != 0 &&\n                newSignaturesThreshold <= maxValidatorsCount,\n            \"Ivalid number of Validators\"\n        );\n        signatureThreshold = newSignaturesThreshold;\n    }\n\n    function addToken(address newToken, uint256 tokenDailyLimit)\n        public\n        onlyOwner()\n    {\n        require(tokenDailyLimit != 0, \"Invalid value tokenDailyLimit\");\n        tokens[newToken] = true;\n        dailyLimit[newToken] = tokenDailyLimit;\n        dailyLimitSetTime[newToken] = block.timestamp;\n    }\n\n    function removeToken(address removedToken) public onlyOwner() {\n        tokens[removedToken] = false;\n        dailyLimit[removedToken] = 0;\n        dailyLimitSetTime[removedToken] = 0;\n    }\n\n    function setDailyLimit(uint256 newLimit, address assetLimited)\n        public\n        onlyOwner()\n    {\n        require(newLimit != 0, \"Invalid limit\");\n        require(\n            tokens[assetLimited],\n            \"There is no such an asset in the Bridge contract\"\n        );\n        dailyLimit[assetLimited] = newLimit;\n    }\n\n    function setNewDurationBeforeExpirationTime(uint256 newDuration)\n        public\n        onlyOwner()\n    {\n        require(newDuration != 0, \"Invalid duration value\");\n        durationBeforeExpirationTime = newDuration;\n    }\n\n    function hashMessage(SwapMessage memory transferInfo)\n        public\n        pure\n        returns (bytes32)\n    {\n        return\n            keccak256(\n                abi.encode(\n                    transferInfo.chainId,\n                    transferInfo.receiver,\n                    transferInfo.sender,\n                    transferInfo.timestamp,\n                    transferInfo.amount,\n                    transferInfo.asset,\n                    transferInfo.transferNonce\n                )\n            );\n    }\n\n    function isTimeNotExpired(uint256 txTime) private view returns (bool) {\n        if (block.timestamp.sub(txTime) < durationBeforeExpirationTime) {\n            return true;\n        } else {\n            return false;\n        }\n    }\n\n    function verifySignatures(bytes32 signedMessage, bytes[] memory signatures)\n        private\n        view\n        returns (bool)\n    {\n        address[] memory signers = new address[](signatures.length);\n        for (uint256 i = 0; i < signatures.length; i++) {\n            address signerAddress = ECDSA.recover(signedMessage, signatures[i]);\n            if (!validators[signerAddress]) return false;\n            if (i > 0) {\n                if (!checkUnique(signerAddress, signers)) return false;\n            }\n            signers[i] = signerAddress;\n        }\n        return true;\n    }\n\n    function checkUnique(address signer, address[] memory allSigners)\n        private\n        pure\n        returns (bool)\n    {\n        for (uint256 i = 0; i < allSigners.length; i++) {\n            if (signer == allSigners[i]) {\n                return false;\n            }\n        }\n        return true;\n    }\n\n    function updateDailyLimit(address asset) private {\n        uint256 currentTime = block.timestamp;\n        if (currentTime.sub(dailyLimitSetTime[asset]) > 1 days) {\n            // we don't check dailyLimitSetTime on zero because if execution came here token already in tokens mapp and dailyLimitSetTime also filled\n            dailyLimitSetTime[asset] = currentTime;\n            dailySpend[asset] = 0;\n        }\n    }\n\n    function makeSwap(SwapMessage memory transferInfo) private returns (bool) {\n        uint256 assetDailyLimit = dailyLimit[transferInfo.asset];\n\n        require(\n            assetDailyLimit > 0,\n            \"Can't transfer asset without daily limit\"\n        );\n        updateDailyLimit(transferInfo.asset);\n        require(\n            transferInfo.amount.add(dailySpend[transferInfo.asset]) <=\n                assetDailyLimit,\n            \"Daily limit has already reached for this asset\"\n        );\n\n        dailySpend[transferInfo.asset] = dailySpend[transferInfo.asset].add(\n            transferInfo.amount\n        );\n        if (transferInfo.asset == address(0)) {\n            uint256 amountToSend = transferInfo.amount.sub(\n                transferInfo.amount.mul(fee).div(100)\n            );\n            require(\n                transferInfo.receiver.send(amountToSend),\n                \"Fail sending Ethers\"\n            );\n        } else {\n            uint256 amountToSend = transferInfo.amount.sub(\n                transferInfo.amount.mul(fee).div(100)\n            );\n            EdgewareToken assetContract = EdgewareToken(transferInfo.asset);\n            require(\n                assetContract.mintFor(transferInfo.receiver, amountToSend),\n                \"Error while mint tokens for the receiver\"\n            );\n        }\n        return true;\n    }\n\n    function getAddreessFromSignuture(bytes32 signedMessage, bytes memory signature) public view returns(address) {\n        return ECDSA.recover(signedMessage, signature);\n    }\n}\n",
  "sourcePath": "/media/dev/a1f3111b-cf3b-4b8d-8080-52d4b51c231e/dev//Blaise/Projects/harmony_bridge_backend/worker/contracts/HarmonyBridge.sol",
  "compiler": {
    "name": "solc",
    "version": "0.6.12+commit.27d51765.Emscripten.clang"
  },
  "schemaVersion": "3.3.2",
  "updatedAt": "2020-11-19T16:54:48.901Z",
  "devdoc": {
    "kind": "dev",
    "methods": {
      "owner()": {
        "details": "Returns the address of the current owner."
      },
      "renounceOwnership()": {
        "details": "Leaves the contract without owner. It will not be possible to call `onlyOwner` functions anymore. Can only be called by the current owner. NOTE: Renouncing ownership will leave the contract without an owner, thereby removing any functionality that is only available to the owner."
      },
      "requestSwap((uint256,address,string,uint256,uint256,address,uint256),bytes[])": {
        "details": "Request for swap coins and tokens Can only be called by the worker. Works for only for expiration time interval, for added token address, and validated signatures and for assetDailyLimit no more than initialized SwapMessage transferInfo to see type SwapMessage bytes[] signatures - array of hashes Can only be called by the worker."
      },
      "transferOwnership(address)": {
        "details": "Transfers ownership of the contract to a new account (`newOwner`). Can only be called by the current owner."
      }
    },
    "version": 1
  },
  "userdoc": {
    "kind": "user",
    "methods": {},
    "version": 1
  }
}