{
  "contractName": "HarmonyBridge",
  "abi": [
    {
      "inputs": [
        {
          "internalType": "uint256",
          "name": "threshold",
          "type": "uint256"
        },
        {
          "internalType": "uint256",
          "name": "maxPermissibleValidatorCount",
          "type": "uint256"
        },
        {
          "internalType": "uint256",
          "name": "transferFee",
          "type": "uint256"
        },
        {
          "internalType": "uint256",
          "name": "coinDailyLimit",
          "type": "uint256"
        },
        {
          "internalType": "uint256",
          "name": "chId",
          "type": "uint256"
        },
        {
          "internalType": "uint256",
          "name": "minAmounTransfr",
          "type": "uint256"
        }
      ],
      "stateMutability": "nonpayable",
      "type": "constructor"
    },
    {
      "anonymous": false,
      "inputs": [
        {
          "indexed": true,
          "internalType": "address",
          "name": "previousOwner",
          "type": "address"
        },
        {
          "indexed": true,
          "internalType": "address",
          "name": "newOwner",
          "type": "address"
        }
      ],
      "name": "OwnershipTransferred",
      "type": "event"
    },
    {
      "anonymous": false,
      "inputs": [
        {
          "indexed": false,
          "internalType": "string",
          "name": "receiver",
          "type": "string"
        },
        {
          "indexed": false,
          "internalType": "address",
          "name": "sender",
          "type": "address"
        },
        {
          "indexed": false,
          "internalType": "uint256",
          "name": "amount",
          "type": "uint256"
        },
        {
          "indexed": false,
          "internalType": "address",
          "name": "asset",
          "type": "address"
        },
        {
          "indexed": false,
          "internalType": "uint256",
          "name": "transferNonce",
          "type": "uint256"
        },
        {
          "indexed": false,
          "internalType": "uint256",
          "name": "timestamp",
          "type": "uint256"
        }
      ],
      "name": "TokensTransfered",
      "type": "event"
    },
    {
      "anonymous": false,
      "inputs": [
        {
          "indexed": false,
          "internalType": "address",
          "name": "validator",
          "type": "address"
        },
        {
          "indexed": false,
          "internalType": "bool",
          "name": "isActive",
          "type": "bool"
        },
        {
          "indexed": false,
          "internalType": "uint256",
          "name": "totalActiveValidators",
          "type": "uint256"
        }
      ],
      "name": "ValidatorsCountChanged",
      "type": "event"
    },
    {
      "inputs": [],
      "name": "chainId",
      "outputs": [
        {
          "internalType": "uint256",
          "name": "",
          "type": "uint256"
        }
      ],
      "stateMutability": "view",
      "type": "function"
    },
    {
      "inputs": [],
      "name": "currentValidatorsCount",
      "outputs": [
        {
          "internalType": "uint256",
          "name": "",
          "type": "uint256"
        }
      ],
      "stateMutability": "view",
      "type": "function"
    },
    {
      "inputs": [
        {
          "internalType": "address",
          "name": "",
          "type": "address"
        }
      ],
      "name": "dailyLimit",
      "outputs": [
        {
          "internalType": "uint256",
          "name": "",
          "type": "uint256"
        }
      ],
      "stateMutability": "view",
      "type": "function"
    },
    {
      "inputs": [
        {
          "internalType": "address",
          "name": "",
          "type": "address"
        }
      ],
      "name": "dailySpend",
      "outputs": [
        {
          "internalType": "uint256",
          "name": "",
          "type": "uint256"
        }
      ],
      "stateMutability": "view",
      "type": "function"
    },
    {
      "inputs": [],
      "name": "fee",
      "outputs": [
        {
          "internalType": "uint256",
          "name": "",
          "type": "uint256"
        }
      ],
      "stateMutability": "view",
      "type": "function"
    },
    {
      "inputs": [],
      "name": "maxValidatorsCount",
      "outputs": [
        {
          "internalType": "uint256",
          "name": "",
          "type": "uint256"
        }
      ],
      "stateMutability": "view",
      "type": "function"
    },
    {
      "inputs": [],
      "name": "minAmountToTransfer",
      "outputs": [
        {
          "internalType": "uint256",
          "name": "",
          "type": "uint256"
        }
      ],
      "stateMutability": "view",
      "type": "function"
    },
    {
      "inputs": [],
      "name": "owner",
      "outputs": [
        {
          "internalType": "address",
          "name": "",
          "type": "address"
        }
      ],
      "stateMutability": "view",
      "type": "function"
    },
    {
      "inputs": [],
      "name": "renounceOwnership",
      "outputs": [],
      "stateMutability": "nonpayable",
      "type": "function"
    },
    {
      "inputs": [
        {
          "internalType": "address",
          "name": "",
          "type": "address"
        }
      ],
      "name": "tokens",
      "outputs": [
        {
          "internalType": "bool",
          "name": "",
          "type": "bool"
        }
      ],
      "stateMutability": "view",
      "type": "function"
    },
    {
      "inputs": [
        {
          "internalType": "address",
          "name": "newOwner",
          "type": "address"
        }
      ],
      "name": "transferOwnership",
      "outputs": [],
      "stateMutability": "nonpayable",
      "type": "function"
    },
    {
      "inputs": [
        {
          "internalType": "address",
          "name": "",
          "type": "address"
        }
      ],
      "name": "validatorRewards",
      "outputs": [
        {
          "internalType": "uint256",
          "name": "",
          "type": "uint256"
        }
      ],
      "stateMutability": "view",
      "type": "function"
    },
    {
      "inputs": [
        {
          "internalType": "address",
          "name": "",
          "type": "address"
        }
      ],
      "name": "validators",
      "outputs": [
        {
          "internalType": "bool",
          "name": "",
          "type": "bool"
        }
      ],
      "stateMutability": "view",
      "type": "function"
    },
    {
      "inputs": [
        {
          "internalType": "uint256",
          "name": "",
          "type": "uint256"
        }
      ],
      "name": "validatorsAddresses",
      "outputs": [
        {
          "internalType": "address",
          "name": "",
          "type": "address"
        }
      ],
      "stateMutability": "view",
      "type": "function"
    },
    {
      "inputs": [
        {
          "internalType": "address",
          "name": "",
          "type": "address"
        }
      ],
      "name": "workers",
      "outputs": [
        {
          "internalType": "bool",
          "name": "",
          "type": "bool"
        }
      ],
      "stateMutability": "view",
      "type": "function"
    },
    {
      "stateMutability": "payable",
      "type": "receive"
    },
    {
      "inputs": [
        {
          "internalType": "string",
          "name": "receiver",
          "type": "string"
        }
      ],
      "name": "transferCoin",
      "outputs": [],
      "stateMutability": "payable",
      "type": "function"
    },
    {
      "inputs": [
        {
          "components": [
            {
              "internalType": "uint256",
              "name": "chainId",
              "type": "uint256"
            },
            {
              "internalType": "address payable",
              "name": "receiver",
              "type": "address"
            },
            {
              "internalType": "string",
              "name": "sender",
              "type": "string"
            },
            {
              "internalType": "uint256",
              "name": "timestamp",
              "type": "uint256"
            },
            {
              "internalType": "uint256",
              "name": "amount",
              "type": "uint256"
            },
            {
              "internalType": "address",
              "name": "asset",
              "type": "address"
            },
            {
              "internalType": "uint256",
              "name": "transferNonce",
              "type": "uint256"
            }
          ],
          "internalType": "struct HarmonyBridge.SwapMessage",
          "name": "transferInfo",
          "type": "tuple"
        },
        {
          "internalType": "bytes[]",
          "name": "signatures",
          "type": "bytes[]"
        }
      ],
      "name": "requestSwap",
      "outputs": [
        {
          "internalType": "bool",
          "name": "",
          "type": "bool"
        }
      ],
      "stateMutability": "payable",
      "type": "function"
    },
    {
      "inputs": [
        {
          "internalType": "string",
          "name": "receiver",
          "type": "string"
        },
        {
          "internalType": "uint256",
          "name": "amount",
          "type": "uint256"
        },
        {
          "internalType": "address",
          "name": "asset",
          "type": "address"
        }
      ],
      "name": "transferToken",
      "outputs": [],
      "stateMutability": "nonpayable",
      "type": "function"
    },
    {
      "inputs": [],
      "name": "requestRewards",
      "outputs": [],
      "stateMutability": "payable",
      "type": "function"
    },
    {
      "inputs": [
        {
          "internalType": "uint256",
          "name": "percentFee",
          "type": "uint256"
        }
      ],
      "name": "setFee",
      "outputs": [],
      "stateMutability": "nonpayable",
      "type": "function"
    },
    {
      "inputs": [
        {
          "internalType": "address",
          "name": "newValidator",
          "type": "address"
        }
      ],
      "name": "addValidator",
      "outputs": [],
      "stateMutability": "nonpayable",
      "type": "function"
    },
    {
      "inputs": [
        {
          "internalType": "address",
          "name": "removedValidator",
          "type": "address"
        }
      ],
      "name": "removeValidator",
      "outputs": [],
      "stateMutability": "nonpayable",
      "type": "function"
    },
    {
      "inputs": [
        {
          "internalType": "address",
          "name": "newWorker",
          "type": "address"
        }
      ],
      "name": "addWorker",
      "outputs": [],
      "stateMutability": "nonpayable",
      "type": "function"
    },
    {
      "inputs": [
        {
          "internalType": "address",
          "name": "removedWorker",
          "type": "address"
        }
      ],
      "name": "removeWorker",
      "outputs": [],
      "stateMutability": "nonpayable",
      "type": "function"
    },
    {
      "inputs": [
        {
          "internalType": "uint256",
          "name": "newSignaturesThreshold",
          "type": "uint256"
        }
      ],
      "name": "setThreshold",
      "outputs": [],
      "stateMutability": "nonpayable",
      "type": "function"
    },
    {
      "inputs": [
        {
          "internalType": "address",
          "name": "newToken",
          "type": "address"
        },
        {
          "internalType": "uint256",
          "name": "tokenDailyLimit",
          "type": "uint256"
        }
      ],
      "name": "addToken",
      "outputs": [],
      "stateMutability": "nonpayable",
      "type": "function"
    },
    {
      "inputs": [
        {
          "internalType": "address",
          "name": "removedToken",
          "type": "address"
        }
      ],
      "name": "removeToken",
      "outputs": [],
      "stateMutability": "nonpayable",
      "type": "function"
    },
    {
      "inputs": [
        {
          "internalType": "uint256",
          "name": "newLimit",
          "type": "uint256"
        },
        {
          "internalType": "address",
          "name": "assetLimited",
          "type": "address"
        }
      ],
      "name": "setDailyLimit",
      "outputs": [],
      "stateMutability": "nonpayable",
      "type": "function"
    },
    {
      "inputs": [
        {
          "internalType": "uint256",
          "name": "newDuration",
          "type": "uint256"
        }
      ],
      "name": "setNewDurationBeforeExpirationTime",
      "outputs": [],
      "stateMutability": "nonpayable",
      "type": "function"
    },
    {
      "inputs": [
        {
          "components": [
            {
              "internalType": "uint256",
              "name": "chainId",
              "type": "uint256"
            },
            {
              "internalType": "address payable",
              "name": "receiver",
              "type": "address"
            },
            {
              "internalType": "string",
              "name": "sender",
              "type": "string"
            },
            {
              "internalType": "uint256",
              "name": "timestamp",
              "type": "uint256"
            },
            {
              "internalType": "uint256",
              "name": "amount",
              "type": "uint256"
            },
            {
              "internalType": "address",
              "name": "asset",
              "type": "address"
            },
            {
              "internalType": "uint256",
              "name": "transferNonce",
              "type": "uint256"
            }
          ],
          "internalType": "struct HarmonyBridge.SwapMessage",
          "name": "transferInfo",
          "type": "tuple"
        }
      ],
      "name": "hashMessage",
      "outputs": [
        {
          "internalType": "bytes32",
          "name": "",
          "type": "bytes32"
        }
      ],
      "stateMutability": "pure",
      "type": "function"
    }
  ],
  "bytecode": "0x60806040523480156200001157600080fd5b5060405162002a6f38038062002a6f833981016040819052620000349162000138565b60006200004062000134565b600080546001600160a01b0319166001600160a01b0383169081178255604051929350917f8be0079c531659141344cd1fd0a4f28419497f9722a3daafe3b4186f6b6457e0908290a350600c95909555600d939093556000600e81905560089290925562015180600f558180527f05b8ccbb9d4d8fb16ea74ce3c29a41f1b461fbdaff4714a0d9a8eb05499746bc55427fdf7de25b7f1fd6d0b5205f0e18f1f35bd7b8d84cce336588d184533ce43a6f7655601055600160208190527fa6eef7e35abe7026729641147f7915573c7e97b47efa546f5f6e3230263bcb49805460ff19169091179055600955600a5562000182565b3390565b60008060008060008060c0878903121562000151578182fd5b865195506020870151945060408701519350606087015192506080870151915060a087015190509295509295509295565b6128dd80620001926000396000f3fe6080604052600436106101d15760003560e01c8063960bfe04116100f7578063ddca3f4311610095578063f2fde38b11610064578063f2fde38b146104db578063f3f51415146104fb578063f589b79e1461051b578063fa52c7d814610530576101d8565b8063ddca3f4314610473578063ddcbc1b314610488578063de2791dc1461049b578063e4860339146104bb576101d8565b8063af81c5b9116100d1578063af81c5b9146103f3578063b1845c5614610413578063b363c6c214610433578063c4f987a514610453576101d8565b8063960bfe04146103b65780639a8a0592146103d6578063ae5c9357146103eb576101d8565b806355d6904f1161016f578063715018a61161013e578063715018a61461033f578063806ad57e1461035457806382e48439146103745780638da5cb5b14610394576101d8565b806355d6904f146102ca5780635fa7b584146102ea57806369fe0e2d1461030a5780636c0242871461032a576101d8565b806340a141ff116101ab57806340a141ff146102555780634d238c8e146102755780634de02ca014610295578063511ae63f146102aa576101d8565b806319e6fcd5146101dd57806328123dd7146101f25780634048a25714610228576101d8565b366101d857005b600080fd5b6101f06101eb366004611b6e565b610550565b005b3480156101fe57600080fd5b5061021261020d366004611c02565b6105de565b60405161021f9190611dd5565b60405180910390f35b34801561023457600080fd5b50610248610243366004611aef565b610631565b60405161021f9190611dca565b34801561026157600080fd5b506101f0610270366004611aef565b610646565b34801561028157600080fd5b506101f0610290366004611aef565b610728565b3480156102a157600080fd5b50610212610835565b3480156102b657600080fd5b506102126102c5366004611aef565b61083b565b3480156102d657600080fd5b506101f06102e5366004611ba9565b61084d565b3480156102f657600080fd5b506101f0610305366004611aef565b610a6e565b34801561031657600080fd5b506101f0610325366004611cea565b610ad9565b34801561033657600080fd5b50610212610b2b565b34801561034b57600080fd5b506101f0610b31565b34801561036057600080fd5b506101f061036f366004611aef565b610bbd565b34801561038057600080fd5b506101f061038f366004611d02565b610c16565b3480156103a057600080fd5b506103a9610cba565b60405161021f9190611d7c565b3480156103c257600080fd5b506101f06103d1366004611cea565b610cc9565b3480156103e257600080fd5b50610212610d30565b6101f0610d36565b3480156103ff57600080fd5b506101f061040e366004611b0b565b610db6565b34801561041f57600080fd5b5061021261042e366004611aef565b610e46565b34801561043f57600080fd5b506103a961044e366004611cea565b610e58565b34801561045f57600080fd5b506101f061046e366004611aef565b610e7f565b34801561047f57600080fd5b50610212610ed5565b610248610496366004611c35565b610edb565b3480156104a757600080fd5b506101f06104b6366004611cea565b611090565b3480156104c757600080fd5b506102486104d6366004611aef565b6110e7565b3480156104e757600080fd5b506101f06104f6366004611aef565b6110fc565b34801561050757600080fd5b50610212610516366004611aef565b6111bf565b34801561052757600080fd5b506102126111d1565b34801561053c57600080fd5b5061024861054b366004611aef565b6111d7565b600a5434101561057b5760405162461bcd60e51b815260040161057290611e8c565b60405180910390fd5b6105866000346111ec565b61058f346112b3565b60108054600101908190556040517f7102af1a4f20fad155668066a94f6c25a0f6ab0d96f9306ce73736b876a74698916105d3918491339134916000914290611e0f565b60405180910390a150565b80516020808301516040808501516060860151608087015160a088015160c089015194516000986106139890979691016127fa565b6040516020818303038152906040528051906020012090505b919050565b60046020526000908152604090205460ff1681565b61064e611381565b6000546001600160a01b0390811691161461067b5760405162461bcd60e51b8152600401610572906123d4565b600c546001600e540310156106a25760405162461bcd60e51b81526004016105729061239d565b6001600160a01b0381166000908152600260205260409020805460ff191690556106cb81611385565b600e805460001901908190556001600160a01b038216600090815260026020526040908190205490517f153066aab18a34afa5fd45afded10633ea721fcfb168f9ad3a436b179e18b523926105d392859260ff9091169190611da9565b610730611381565b6000546001600160a01b0390811691161461075d5760405162461bcd60e51b8152600401610572906123d4565b600d54600e5414156107815760405162461bcd60e51b8152600401610572906124c3565b6001600160a01b03811660008181526002602052604090819020805460ff191660019081178255600380548083019091557fc2575a0e9e593c00f959f8c92f12db2869c3395a3b0502d05e2516446f71f85b01805473ffffffffffffffffffffffffffffffffffffffff1916909417909355600e8054909301928390555490517f153066aab18a34afa5fd45afded10633ea721fcfb168f9ad3a436b179e18b523926105d392859260ff9091169190611da9565b600a5481565b60066020526000908152604090205481565b6001600160a01b03811660009081526001602052604090205460ff166108855760405162461bcd60e51b815260040161057290612728565b600a5481908310156108a95760405162461bcd60e51b815260040161057290611e8c565b6040517f70a0823100000000000000000000000000000000000000000000000000000000815283906001600160a01b038316906370a08231906108f0903390600401611d7c565b60206040518083038186803b15801561090857600080fd5b505afa15801561091c573d6000803e3d6000fd5b505050506040513d601f19601f820116820180604052508101906109409190611b56565b101561095e5760405162461bcd60e51b8152600401610572906122a1565b61096882846111ec565b6040517f9dc29fac0000000000000000000000000000000000000000000000000000000081526001600160a01b03821690639dc29fac906109af9033908790600401611d90565b602060405180830381600087803b1580156109c957600080fd5b505af11580156109dd573d6000803e3d6000fd5b505050506040513d601f19601f82011682018060405250810190610a019190611b36565b610a1d5760405162461bcd60e51b815260040161057290611f0f565b60108054600101908190556040517f7102af1a4f20fad155668066a94f6c25a0f6ab0d96f9306ce73736b876a7469891610a609187913391889188914290611e0f565b60405180910390a150505050565b610a76611381565b6000546001600160a01b03908116911614610aa35760405162461bcd60e51b8152600401610572906123d4565b6001600160a01b03166000908152600160209081526040808320805460ff1916905560058252808320839055600b909152812055565b610ae1611381565b6000546001600160a01b03908116911614610b0e5760405162461bcd60e51b8152600401610572906123d4565b8015801590610b1d5750606481105b610b2657600080fd5b600855565b600e5481565b610b39611381565b6000546001600160a01b03908116911614610b665760405162461bcd60e51b8152600401610572906123d4565b600080546040516001600160a01b03909116907f8be0079c531659141344cd1fd0a4f28419497f9722a3daafe3b4186f6b6457e0908390a36000805473ffffffffffffffffffffffffffffffffffffffff19169055565b610bc5611381565b6000546001600160a01b03908116911614610bf25760405162461bcd60e51b8152600401610572906123d4565b6001600160a01b03166000908152600460205260409020805460ff19166001179055565b610c1e611381565b6000546001600160a01b03908116911614610c4b5760405162461bcd60e51b8152600401610572906123d4565b81610c685760405162461bcd60e51b81526004016105729061226a565b6001600160a01b03811660009081526001602052604090205460ff16610ca05760405162461bcd60e51b815260040161057290612466565b6001600160a01b0316600090815260056020526040902055565b6000546001600160a01b031690565b610cd1611381565b6000546001600160a01b03908116911614610cfe5760405162461bcd60e51b8152600401610572906123d4565b8015801590610d0f5750600d548111155b610d2b5760405162461bcd60e51b81526004016105729061257d565b600c55565b60095481565b33600090815260076020526040902054610d625760405162461bcd60e51b81526004016105729061215d565b3360008181526007602052604080822054905181156108fc0292818181858888f19350505050610da45760405162461bcd60e51b8152600401610572906125b4565b33600090815260076020526040812055565b610dbe611381565b6000546001600160a01b03908116911614610deb5760405162461bcd60e51b8152600401610572906123d4565b80610e085760405162461bcd60e51b8152600401610572906121ba565b6001600160a01b039091166000908152600160208181526040808420805460ff19169093179092556005815281832093909355600b90925220429055565b60076020526000908152604090205481565b60038181548110610e6557fe5b6000918252602090912001546001600160a01b0316905081565b610e87611381565b6000546001600160a01b03908116911614610eb45760405162461bcd60e51b8152600401610572906123d4565b6001600160a01b03166000908152600460205260409020805460ff19169055565b60085481565b3360009081526004602052604081205460ff16610f0a5760405162461bcd60e51b81526004016105729061266e565b610f1783606001516113c9565b610f335760405162461bcd60e51b815260040161057290612520565b600954835114610f555760405162461bcd60e51b8152600401610572906126cb565b60a08301516001600160a01b031660009081526001602052604090205460ff16610f915760405162461bcd60e51b815260040161057290612728565b600c54825110158015610fa75750600d54825111155b610fc35760405162461bcd60e51b815260040161057290612611565b6040517f28123dd700000000000000000000000000000000000000000000000000000000815260009030906328123dd790611002908790600401612785565b60206040518083038186803b15801561101a57600080fd5b505afa15801561102e573d6000803e3d6000fd5b505050506040513d601f19601f820116820180604052508101906110529190611b56565b905061105e81846113ef565b61107a5760405162461bcd60e51b815260040161057290611f7b565b6000611085856114eb565b925050505b92915050565b611098611381565b6000546001600160a01b039081169116146110c55760405162461bcd60e51b8152600401610572906123d4565b806110e25760405162461bcd60e51b815260040161057290612233565b600f55565b60016020526000908152604090205460ff1681565b611104611381565b6000546001600160a01b039081169116146111315760405162461bcd60e51b8152600401610572906123d4565b6001600160a01b0381166111575760405162461bcd60e51b815260040161057290612035565b600080546040516001600160a01b03808516939216917f8be0079c531659141344cd1fd0a4f28419497f9722a3daafe3b4186f6b6457e091a36000805473ffffffffffffffffffffffffffffffffffffffff19166001600160a01b0392909216919091179055565b60056020526000908152604090205481565b600d5481565b60026020526000908152604090205460ff1681565b6001600160a01b038216600090815260056020526040902054806112225760405162461bcd60e51b815260040161057290612409565b61122b8361167c565b6001600160a01b03831660009081526006602052604090205481906112519084906116d8565b111561126f5760405162461bcd60e51b815260040161057290611fd8565b6001600160a01b03831660009081526006602052604090205461129290836116d8565b6001600160a01b039093166000908152600660205260409020929092555050565b60006112d560646112cf6008548561170490919063ffffffff16565b9061173e565b905060005b60035481101561137c5760006112fb600e548461173e90919063ffffffff16565b905061133d81600760006003868154811061131257fe5b60009182526020808320909101546001600160a01b03168352820192909252604001902054906116d8565b600760006003858154811061134e57fe5b60009182526020808320909101546001600160a01b03168352820192909252604001902055506001016112da565b505050565b3390565b600061139082611780565b90506003818154811061139f57fe5b6000918252602090912001805473ffffffffffffffffffffffffffffffffffffffff191690555050565b600f546000906113d942846117bd565b10156113e75750600161062c565b50600061062c565b60006060825167ffffffffffffffff8111801561140b57600080fd5b50604051908082528060200260200182016040528015611435578160200160208202803683370190505b50905060005b83518110156114e05760006114638686848151811061145657fe5b60200260200101516117ff565b6001600160a01b03811660009081526002602052604090205490915060ff16611492576000935050505061108a565b81156114b2576114a2818461192d565b6114b2576000935050505061108a565b808383815181106114bf57fe5b6001600160a01b03909216602092830291909101909101525060010161143b565b506001949350505050565b60a08101516000906001600160a01b031661158b57600061152e61152360646112cf600854876080015161170490919063ffffffff16565b6080850151906117bd565b905061153d83608001516112b3565b82602001516001600160a01b03166108fc829081150290604051600060405180830381858888f193505050506115855760405162461bcd60e51b815260040161057290612126565b50611674565b60006115ae61152360646112cf600854876080015161170490919063ffffffff16565b60a084015160208501516040517fda1919b300000000000000000000000000000000000000000000000000000000815292935090916001600160a01b0383169163da1919b39161160391908690600401611d90565b602060405180830381600087803b15801561161d57600080fd5b505af1158015611631573d6000803e3d6000fd5b505050506040513d601f19601f820116820180604052508101906116559190611b36565b6116715760405162461bcd60e51b8152600401610572906120c9565b50505b506001919050565b6001600160a01b0381166000908152600b6020526040902054429062015180906116a79083906117bd565b11156116d4576001600160a01b0382166000908152600b6020908152604080832084905560069091528120555b5050565b6000828201838110156116fd5760405162461bcd60e51b815260040161057290612092565b9392505050565b6000826117135750600061108a565b8282028284828161172057fe5b04146116fd5760405162461bcd60e51b815260040161057290612340565b60006116fd83836040518060400160405280601a81526020017f536166654d6174683a206469766973696f6e206279207a65726f000000000000815250611983565b6000805b826001600160a01b03166003828154811061179b57fe5b6000918252602090912001546001600160a01b03161461108a57600101611784565b60006116fd83836040518060400160405280601e81526020017f536166654d6174683a207375627472616374696f6e206f766572666c6f7700008152506119ba565b600081516041146118225760405162461bcd60e51b815260040161057290611f44565b60208201516040830151606084015160001a7f7fffffffffffffffffffffffffffffff5d576e7357a4501ddfe92f46681b20a08211156118745760405162461bcd60e51b8152600401610572906121f1565b8060ff16601b1415801561188c57508060ff16601c14155b156118a95760405162461bcd60e51b8152600401610572906122fe565b6000600187838686604051600081526020016040526040516118ce9493929190611dde565b6020604051602081039080840390855afa1580156118f0573d6000803e3d6000fd5b5050604051601f1901519150506001600160a01b0381166119235760405162461bcd60e51b815260040161057290611e55565b9695505050505050565b6000805b82518110156119795782818151811061194657fe5b60200260200101516001600160a01b0316846001600160a01b0316141561197157600091505061108a565b600101611931565b5060019392505050565b600081836119a45760405162461bcd60e51b81526004016105729190611dfc565b5060008385816119b057fe5b0495945050505050565b600081848411156119de5760405162461bcd60e51b81526004016105729190611dfc565b505050900390565b803561108a8161288f565b600082601f830112611a01578081fd5b813567ffffffffffffffff811115611a17578182fd5b611a2a601f8201601f1916602001612848565b9150808252836020828501011115611a4157600080fd5b8060208401602084013760009082016020015292915050565b600060e08284031215611a6b578081fd5b611a7560e0612848565b905081358152611a8883602084016119e6565b6020820152604082013567ffffffffffffffff811115611aa757600080fd5b611ab3848285016119f1565b6040830152506060820135606082015260808201356080820152611ada8360a084016119e6565b60a082015260c082013560c082015292915050565b600060208284031215611b00578081fd5b81356116fd8161288f565b60008060408385031215611b1d578081fd5b8235611b288161288f565b946020939093013593505050565b600060208284031215611b47578081fd5b815180151581146116fd578182fd5b600060208284031215611b67578081fd5b5051919050565b600060208284031215611b7f578081fd5b813567ffffffffffffffff811115611b95578182fd5b611ba1848285016119f1565b949350505050565b600080600060608486031215611bbd578081fd5b833567ffffffffffffffff811115611bd3578182fd5b611bdf868287016119f1565b935050602084013591506040840135611bf78161288f565b809150509250925092565b600060208284031215611c13578081fd5b813567ffffffffffffffff811115611c29578182fd5b611ba184828501611a5a565b60008060408385031215611c47578182fd5b823567ffffffffffffffff80821115611c5e578384fd5b611c6a86838701611a5a565b9350602091508185013581811115611c80578384fd5b85019050601f81018613611c92578283fd5b8035611ca5611ca08261286f565b612848565b81815283810190838501865b84811015611cda57611cc88b8884358901016119f1565b84529286019290860190600101611cb1565b5096999098509650505050505050565b600060208284031215611cfb578081fd5b5035919050565b60008060408385031215611d14578182fd5b823591506020830135611d268161288f565b809150509250929050565b60008151808452815b81811015611d5657602081850181015186830182015201611d3a565b81811115611d675782602083870101525b50601f01601f19169290920160200192915050565b6001600160a01b0391909116815260200190565b6001600160a01b03929092168252602082015260400190565b6001600160a01b039390931683529015156020830152604082015260600190565b901515815260200190565b90815260200190565b93845260ff9290921660208401526040830152606082015260800190565b6000602082526116fd6020830184611d31565b600060c08252611e2260c0830189611d31565b6001600160a01b039788166020840152604083019690965250929094166060830152608082015260a00191909152919050565b60208082526018908201527f45434453413a20696e76616c6964207369676e61747572650000000000000000604082015260600190565b60208082526046908201527f5472616e7366657220616d6f756e742073686f756c642062652062696767657260408201527f206f7220657175616c207468616e206d696e696d756d2072657175697265642060608201527f616d6f756e740000000000000000000000000000000000000000000000000000608082015260a00190565b6020808252818101527f4572726f72207768696c65206275726e2073656e646572277320746f6b656e73604082015260600190565b6020808252601f908201527f45434453413a20696e76616c6964207369676e6174757265206c656e67746800604082015260600190565b60208082526021908201527f5369676e61747572657320766572696669636174696f6e206973206661696c6560408201527f6400000000000000000000000000000000000000000000000000000000000000606082015260800190565b6020808252602e908201527f4461696c79206c696d69742068617320616c726561647920726561636865642060408201527f666f722074686973206173736574000000000000000000000000000000000000606082015260800190565b60208082526026908201527f4f776e61626c653a206e6577206f776e657220697320746865207a65726f206160408201527f6464726573730000000000000000000000000000000000000000000000000000606082015260800190565b6020808252601b908201527f536166654d6174683a206164646974696f6e206f766572666c6f770000000000604082015260600190565b60208082526028908201527f4572726f72207768696c65206d696e7420746f6b656e7320666f72207468652060408201527f7265636569766572000000000000000000000000000000000000000000000000606082015260800190565b60208082526013908201527f4661696c2073656e64696e672045746865727300000000000000000000000000604082015260600190565b60208082526025908201527f54686973206164647265737320646f65736e2774206861766520616e7920726560408201527f7761726473000000000000000000000000000000000000000000000000000000606082015260800190565b6020808252601d908201527f496e76616c69642076616c756520746f6b656e4461696c794c696d6974000000604082015260600190565b60208082526022908201527f45434453413a20696e76616c6964207369676e6174757265202773272076616c604082015261756560f01b606082015260800190565b60208082526016908201527f496e76616c6964206475726174696f6e2076616c756500000000000000000000604082015260600190565b6020808252600d908201527f496e76616c6964206c696d697400000000000000000000000000000000000000604082015260600190565b60208082526032908201527f53656e64657220646f65736e2774206861766520656e6f75676820746f6b656e60408201527f7320746f206d616b65207472616e736665720000000000000000000000000000606082015260800190565b60208082526022908201527f45434453413a20696e76616c6964207369676e6174757265202776272076616c604082015261756560f01b606082015260800190565b60208082526021908201527f536166654d6174683a206d756c7469706c69636174696f6e206f766572666c6f60408201527f7700000000000000000000000000000000000000000000000000000000000000606082015260800190565b6020808252601c908201527f546865726520617265206e6f2076616c696461746f7273206e6f772100000000604082015260600190565b6020808252818101527f4f776e61626c653a2063616c6c6572206973206e6f7420746865206f776e6572604082015260600190565b60208082526028908201527f43616e2774207472616e7366657220617373657420776974686f75742064616960408201527f6c79206c696d6974000000000000000000000000000000000000000000000000606082015260800190565b60208082526030908201527f5468657265206973206e6f207375636820616e20617373657420696e2074686560408201527f2042726964676520636f6e747261637400000000000000000000000000000000606082015260800190565b60208082526028908201527f546865206d6178696d756d206e756d626572206f662076616c696461746f727360408201527f206973206e6f7721000000000000000000000000000000000000000000000000606082015260800190565b60208082526034908201527f5472616e73616374696f6e2063616e27742062652073656e742062656361757360408201527f65206f662065787069726174696f6e2074696d65000000000000000000000000606082015260800190565b6020808252601b908201527f4976616c6964206e756d626572206f662056616c696461746f72730000000000604082015260600190565b6020808252602c908201527f4661696c207768696c652073656e64696e67207265776172647320666f72207460408201527f68652056616c696461746f720000000000000000000000000000000000000000606082015260800190565b6020808252602a908201527f57726f6e6720636f756e74206f66207369676e61747572657320746f206d616b60408201527f65207472616e7366657200000000000000000000000000000000000000000000606082015260800190565b60208082526023908201527f4f6e6c7920776f726b65722063616e2063616c6c20746869732066756e63746960408201527f6f6e2e0000000000000000000000000000000000000000000000000000000000606082015260800190565b60208082526039908201527f537761702072657175657374277320636861696e20494420646f65736e27742060408201527f6d6174636820636f6e7472616374277320636861696e20494400000000000000606082015260800190565b60208082526023908201527f556e6b6e6f776e20617373657420697320747279696e6720746f207472616e7360408201527f6665720000000000000000000000000000000000000000000000000000000000606082015260800190565b6000602082528251602083015260208301516001600160a01b0380821660408501526040850151915060e060608501526127c3610100850183611d31565b915060608501516080850152608085015160a08501528060a08601511660c08501525060c084015160e08401528091505092915050565b60008882526001600160a01b03808916602084015260e0604084015261282360e0840189611d31565b60608401979097526080830195909552509190921660a082015260c001529392505050565b60405181810167ffffffffffffffff8111828210171561286757600080fd5b604052919050565b600067ffffffffffffffff821115612885578081fd5b5060209081020190565b6001600160a01b03811681146128a457600080fd5b5056fea264697066735822122092d28f9c53a2c617d464696b4d9d35c70668f2184ac4fd1ca43852b76acdaccd64736f6c634300060c0033",
  "source": "// SPDX-License-Identifier: MIT\npragma solidity ^0.6.12;\npragma experimental ABIEncoderV2;\n\nimport \"@openzeppelin/contracts/access/Ownable.sol\";\nimport \"@openzeppelin/contracts/math/SafeMath.sol\";\nimport \"@openzeppelin/contracts/cryptography/ECDSA.sol\";\nimport \"./EdgewareToken.sol\";\n\ncontract HarmonyBridge is Ownable {\n    using SafeMath for uint256;\n\n    mapping(address => bool) public tokens;\n    mapping(address => bool) public validators;\n    address[] public validatorsAddresses;\n    mapping(address => bool) public workers;\n    mapping(address => uint256) public dailyLimit;\n    mapping(address => uint256) public dailySpend;\n    mapping(address => uint256) public validatorRewards;\n    uint256 public fee;\n    uint256 public chainId;\n    uint256 public minAmountToTransfer;\n\n    mapping(address => uint256) dailyLimitSetTime;\n    uint256 signatureThreshold;\n    uint256 public maxValidatorsCount;\n    uint256 public currentValidatorsCount;\n    uint256 durationBeforeExpirationTime;\n    uint256 transferNonce;\n\n    event TokensTransfered(\n        string receiver,\n        address sender,\n        uint256 amount,\n        address asset,\n        uint256 transferNonce,\n        uint256 timestamp\n    );\n\n    event ValidatorsCountChanged(\n        address validator,\n        bool isActive,\n        uint256 totalActiveValidators\n    );\n\n    struct SwapMessage {\n        uint256 chainId;\n        address payable receiver;\n        string sender;\n        uint256 timestamp;\n        uint256 amount;\n        address asset;\n        uint256 transferNonce;\n    }\n\n    modifier onlyWorker() {\n        require(workers[msg.sender], \"Only worker can call this function.\");\n        _;\n    }\n\n    constructor(\n        uint256 threshold,\n        uint256 maxPermissibleValidatorCount,\n        uint256 transferFee,\n        uint256 coinDailyLimit,\n        uint256 chId,\n        uint256 minAmounTransfr\n    ) public Ownable() {\n        signatureThreshold = threshold;\n        maxValidatorsCount = maxPermissibleValidatorCount;\n        currentValidatorsCount = 0;\n        fee = transferFee;\n        durationBeforeExpirationTime = 1 days;\n        dailyLimit[address(0)] = coinDailyLimit;\n        dailyLimitSetTime[address(0)] = block.timestamp;\n        transferNonce = 0;\n        tokens[address(0)] = true;\n        chainId = chId;\n        minAmountToTransfer = minAmounTransfr;\n    }\n\n    receive() external payable {}\n\n    function transferCoin(string memory receiver) public payable {\n        require(\n            msg.value >= minAmountToTransfer,\n            \"Transfer amount should be bigger or equal than minimum required amount\"\n        );\n\n        checkAssetDailyLimit(address(0), msg.value);\n\n        distributeRewardsForValidators(msg.value);\n\n        transferNonce++;\n        emit TokensTransfered(\n            receiver,\n            msg.sender,\n            msg.value,\n            address(0),\n            transferNonce,\n            block.timestamp\n        );\n    }\n\n    /**\n     * @dev Request for swap coins and tokens\n     * Can only be called by the worker. Works for only for expiration time interval,\n     * for added token address, and validated signatures and for assetDailyLimit no more than\n     * initialized\n     * SwapMessage transferInfo to see type SwapMessage\n     * bytes[] signatures - array of hashes\n     * Can only be called by the worker.\n     */\n    function requestSwap(\n        SwapMessage memory transferInfo,\n        bytes[] memory signatures\n    ) public payable onlyWorker() returns (bool) {\n        require(\n            isTimeNotExpired(transferInfo.timestamp),\n            \"Transaction can't be sent because of expiration time\"\n        );\n\n        require(\n            transferInfo.chainId == chainId,\n            \"Swap request's chain ID doesn't match contract's chain ID\");\n\n        require(\n            tokens[transferInfo.asset],\n            \"Unknown asset is trying to transfer\"\n        );\n\n        require(\n            transferInfo.receiver == address(transferInfo.receiver),\n            \"Invalid receiver address\"\n        );\n\n        require(\n            signatures.length >= signatureThreshold &&\n                signatures.length <= maxValidatorsCount,\n            \"Wrong count of signatures to make transfer\"\n        );\n\n        bytes32 signedMessage = this.hashMessage(transferInfo);\n        require(\n            verifySignatures(signedMessage, signatures),\n            \"Signatures verification is failed\"\n        );\n\n        bool res = makeSwap(transferInfo);\n        return res;\n    }\n\n    function transferToken(\n        string memory receiver,\n        uint256 amount,\n        address asset\n    ) public {\n        require(tokens[asset], \"Unknown asset is trying to transfer\");\n        EdgewareToken assetContract = EdgewareToken(asset);\n\n        require(\n            amount >= minAmountToTransfer,\n            \"Transfer amount should be bigger or equal than minimum required amount\"\n        );\n\n        require(\n            assetContract.balanceOf(msg.sender) >= amount,\n            \"Sender doesn't have enough tokens to make transfer\"\n        );\n\n        checkAssetDailyLimit(asset, amount);\n\n        require(\n            assetContract.burn(msg.sender, amount),\n            \"Error while burn sender's tokens\"\n        );\n        transferNonce++;\n\n        emit TokensTransfered(\n            receiver,\n            msg.sender,\n            amount,\n            asset,\n            transferNonce,\n            block.timestamp\n        );\n    }\n\n    function requestRewards() public payable {\n        require(\n            validatorRewards[msg.sender] > 0,\n            \"This address doesn't have any rewards\");\n        \n        require(\n                msg.sender.send(validatorRewards[msg.sender]),\n                \"Fail while sending rewards for the Validator\"\n            );\n        \n        validatorRewards[msg.sender] = 0;\n    }\n\n    function setFee(uint256 percentFee) public onlyOwner() {\n        require(percentFee != 0 && percentFee < 100);\n        fee = percentFee;\n    }\n\n    function addValidator(address newValidator) public onlyOwner() {\n        require(\n            currentValidatorsCount != maxValidatorsCount,\n            \"The maximum number of validators is now!\"\n        );\n        validators[newValidator] = true;\n        validatorsAddresses.push(newValidator);\n        currentValidatorsCount++;\n        emit ValidatorsCountChanged(\n            newValidator,\n            validators[newValidator],\n            currentValidatorsCount\n        );\n    }\n\n    function removeValidator(address removedValidator) public onlyOwner() {\n        require(\n            currentValidatorsCount - 1 >= signatureThreshold,\n            \"There are no validators now!\"\n        );\n        validators[removedValidator] = false;\n        removeValidatorByValue(removedValidator);\n        currentValidatorsCount--;\n        emit ValidatorsCountChanged(\n            removedValidator,\n            validators[removedValidator],\n            currentValidatorsCount\n        );\n    }\n\n    function addWorker(address newWorker) public onlyOwner() {\n        workers[newWorker] = true;\n    }\n\n    function removeWorker(address removedWorker) public onlyOwner() {\n        workers[removedWorker] = false;\n    }\n\n    function setThreshold(uint256 newSignaturesThreshold) public onlyOwner() {\n        require(\n            newSignaturesThreshold != 0 &&\n                newSignaturesThreshold <= maxValidatorsCount,\n            \"Ivalid number of Validators\"\n        );\n        signatureThreshold = newSignaturesThreshold;\n    }\n\n    function addToken(address newToken, uint256 tokenDailyLimit)\n        public\n        onlyOwner()\n    {\n        require(tokenDailyLimit != 0, \"Invalid value tokenDailyLimit\");\n        tokens[newToken] = true;\n        dailyLimit[newToken] = tokenDailyLimit;\n        dailyLimitSetTime[newToken] = block.timestamp;\n    }\n\n    function removeToken(address removedToken) public onlyOwner() {\n        tokens[removedToken] = false;\n        dailyLimit[removedToken] = 0;\n        dailyLimitSetTime[removedToken] = 0;\n    }\n\n    function setDailyLimit(uint256 newLimit, address assetLimited)\n        public\n        onlyOwner()\n    {\n        require(newLimit != 0, \"Invalid limit\");\n        require(\n            tokens[assetLimited],\n            \"There is no such an asset in the Bridge contract\"\n        );\n        dailyLimit[assetLimited] = newLimit;\n    }\n\n    function setNewDurationBeforeExpirationTime(uint256 newDuration)\n        public\n        onlyOwner()\n    {\n        require(newDuration != 0, \"Invalid duration value\");\n        durationBeforeExpirationTime = newDuration;\n    }\n\n    function hashMessage(SwapMessage memory transferInfo)\n        public\n        pure\n        returns (bytes32)\n    {\n        return\n            keccak256(\n                abi.encode(\n                    transferInfo.chainId,\n                    transferInfo.receiver,\n                    transferInfo.sender,\n                    transferInfo.timestamp,\n                    transferInfo.amount,\n                    transferInfo.asset,\n                    transferInfo.transferNonce\n                )\n            );\n    }\n\n    function isTimeNotExpired(uint256 txTime) private view returns (bool) {\n        if (block.timestamp.sub(txTime) < durationBeforeExpirationTime) {\n            return true;\n        } else {\n            return false;\n        }\n    }\n\n    function verifySignatures(bytes32 signedMessage, bytes[] memory signatures)\n        private\n        view\n        returns (bool)\n    {\n        address[] memory signers = new address[](signatures.length);\n        for (uint256 i = 0; i < signatures.length; i++) {\n            address signerAddress = ECDSA.recover(signedMessage, signatures[i]);\n            if (!validators[signerAddress]) return false;\n            if (i > 0) {\n                if (!checkUnique(signerAddress, signers)) return false;\n            }\n            signers[i] = signerAddress;\n        }\n        return true;\n    }\n\n    function checkUnique(address signer, address[] memory allSigners)\n        private\n        pure\n        returns (bool)\n    {\n        for (uint256 i = 0; i < allSigners.length; i++) {\n            if (signer == allSigners[i]) {\n                return false;\n            }\n        }\n        return true;\n    }\n\n    function distributeRewardsForValidators(uint256 amount) private {\n        uint256 rewardsAmount = amount.mul(fee).div(100);\n\n        for (uint i = 0; i<validatorsAddresses.length; i++){\n            uint256 reward = rewardsAmount.div(currentValidatorsCount);\n            validatorRewards[validatorsAddresses[i]] = validatorRewards[validatorsAddresses[i]].add(reward);\n        }\n    }\n\n    function findValidatorIndex(address value) private view returns(uint) {\n        uint i = 0;\n        while (validatorsAddresses[i] != value) {\n            i++;\n        }\n        return i;\n    }\n\n    function removeValidatorByValue(address value) private {\n        uint i = findValidatorIndex(value);\n        delete validatorsAddresses[i];\n    }\n\n    function updateDailyLimit(address asset) private {\n        uint256 currentTime = block.timestamp;\n        if (currentTime.sub(dailyLimitSetTime[asset]) > 1 days) {\n            // we don't check dailyLimitSetTime on zero because if execution came here token already in tokens mapp and dailyLimitSetTime also filled\n            dailyLimitSetTime[asset] = currentTime;\n            dailySpend[asset] = 0;\n        }\n    }\n\n    function checkAssetDailyLimit(address asset, uint256 amount) private {\n        uint256 assetDailyLimit = dailyLimit[asset];\n\n        require(\n            assetDailyLimit > 0,\n            \"Can't transfer asset without daily limit\"\n        );\n\n        updateDailyLimit(asset);\n\n        require(\n            amount.add(dailySpend[asset]) <=\n                assetDailyLimit,\n            \"Daily limit has already reached for this asset\"\n        );\n\n        dailySpend[asset] = dailySpend[asset].add(\n            amount\n        );\n    }\n\n    function makeSwap(SwapMessage memory transferInfo) private returns (bool) {\n        if (transferInfo.asset == address(0)) {\n            uint256 amountToSend = transferInfo.amount.sub(\n                transferInfo.amount.mul(fee).div(100)\n            );\n            distributeRewardsForValidators(transferInfo.amount);\n            require(\n                transferInfo.receiver.send(amountToSend),\n                \"Fail sending Ethers\"\n            );\n        } else {\n            uint256 amountToSend = transferInfo.amount.sub(\n                transferInfo.amount.mul(fee).div(100)\n            );\n            EdgewareToken assetContract = EdgewareToken(transferInfo.asset);\n            require(\n                assetContract.mintFor(transferInfo.receiver, amountToSend),\n                \"Error while mint tokens for the receiver\"\n            );\n        }\n        return true;\n    }\n}\n",
  "sourcePath": "/Users/vadim/Documents/Work/harmony<>edgeware/HarmonySCs/contracts/HarmonyBridge.sol",
  "compiler": {
    "name": "solc",
    "version": "0.6.12+commit.27d51765.Emscripten.clang"
  },
  "schemaVersion": "3.0.20",
  "updatedAt": "2020-11-19T09:17:11.831Z",
  "devdoc": {
    "kind": "dev",
    "methods": {
      "owner()": {
        "details": "Returns the address of the current owner."
      },
      "renounceOwnership()": {
        "details": "Leaves the contract without owner. It will not be possible to call `onlyOwner` functions anymore. Can only be called by the current owner. NOTE: Renouncing ownership will leave the contract without an owner, thereby removing any functionality that is only available to the owner."
      },
      "requestSwap((uint256,address,string,uint256,uint256,address,uint256),bytes[])": {
        "details": "Request for swap coins and tokens Can only be called by the worker. Works for only for expiration time interval, for added token address, and validated signatures and for assetDailyLimit no more than initialized SwapMessage transferInfo to see type SwapMessage bytes[] signatures - array of hashes Can only be called by the worker."
      },
      "transferOwnership(address)": {
        "details": "Transfers ownership of the contract to a new account (`newOwner`). Can only be called by the current owner."
      }
    },
    "version": 1
  },
  "userdoc": {
    "kind": "user",
    "methods": {},
    "version": 1
  }
}